{
	"Arbitrage_Swap.sol": {
		"Arbitrage": {
			"abi": [
				{
					"inputs": [
						{
							"internalType": "address",
							"name": "_uniswapRouter",
							"type": "address"
						},
						{
							"internalType": "address",
							"name": "_curvePool",
							"type": "address"
						}
					],
					"stateMutability": "nonpayable",
					"type": "constructor"
				},
				{
					"inputs": [
						{
							"internalType": "uint256",
							"name": "usdcAmount",
							"type": "uint256"
						},
						{
							"internalType": "uint256",
							"name": "minEthAmount",
							"type": "uint256"
						}
					],
					"name": "buyEthOnCurve",
					"outputs": [],
					"stateMutability": "nonpayable",
					"type": "function"
				},
				{
					"inputs": [],
					"name": "curvePool",
					"outputs": [
						{
							"internalType": "contract ICurvePool",
							"name": "",
							"type": "address"
						}
					],
					"stateMutability": "view",
					"type": "function"
				},
				{
					"inputs": [
						{
							"internalType": "uint256",
							"name": "usdcAmount",
							"type": "uint256"
						}
					],
					"name": "exchangeArbitrage",
					"outputs": [],
					"stateMutability": "payable",
					"type": "function"
				},
				{
					"inputs": [
						{
							"internalType": "uint256",
							"name": "usdcamount",
							"type": "uint256"
						}
					],
					"name": "getAmountonCurve",
					"outputs": [
						{
							"internalType": "uint256",
							"name": "",
							"type": "uint256"
						}
					],
					"stateMutability": "view",
					"type": "function"
				},
				{
					"inputs": [
						{
							"internalType": "uint256",
							"name": "USDC_amount",
							"type": "uint256"
						}
					],
					"name": "getAmountonUniswap",
					"outputs": [
						{
							"internalType": "uint256",
							"name": "",
							"type": "uint256"
						}
					],
					"stateMutability": "nonpayable",
					"type": "function"
				},
				{
					"inputs": [
						{
							"internalType": "uint256",
							"name": "ethAmount",
							"type": "uint256"
						},
						{
							"internalType": "uint256",
							"name": "minUsdcAmount",
							"type": "uint256"
						}
					],
					"name": "sellEthonCurve",
					"outputs": [],
					"stateMutability": "nonpayable",
					"type": "function"
				},
				{
					"inputs": [
						{
							"internalType": "uint256",
							"name": "usdcamountin",
							"type": "uint256"
						},
						{
							"internalType": "uint256",
							"name": "minETHamountout",
							"type": "uint256"
						}
					],
					"name": "swapExactInputSingleHop",
					"outputs": [],
					"stateMutability": "nonpayable",
					"type": "function"
				},
				{
					"inputs": [
						{
							"internalType": "uint256",
							"name": "ethamountout",
							"type": "uint256"
						},
						{
							"internalType": "uint256",
							"name": "maxUSDCamountin",
							"type": "uint256"
						}
					],
					"name": "swapExactOutputSingleHop",
					"outputs": [],
					"stateMutability": "nonpayable",
					"type": "function"
				},
				{
					"inputs": [],
					"name": "uniswapRouter",
					"outputs": [
						{
							"internalType": "contract ISwapRouter",
							"name": "",
							"type": "address"
						}
					],
					"stateMutability": "view",
					"type": "function"
				}
			],
			"devdoc": {
				"kind": "dev",
				"methods": {},
				"version": 1
			},
			"evm": {
				"assembly": "    /* \"Arbitrage_Swap.sol\":1244:5409  contract Arbitrage{... */\n  mstore(0x40, 0xc0)\n    /* \"Arbitrage_Swap.sol\":1743:1902  constructor(address _uniswapRouter, address _curvePool){... */\n  callvalue\n  dup1\n  iszero\n  tag_1\n  jumpi\n  0x00\n  dup1\n  revert\ntag_1:\n  pop\n  mload(0x40)\n  sub(codesize, bytecodeSize)\n  dup1\n  bytecodeSize\n  dup4\n  codecopy\n  dup2\n  dup2\n  add\n  0x40\n  mstore\n  dup2\n  add\n  swap1\n  tag_2\n  swap2\n  swap1\n  tag_3\n  jump\t// in\ntag_2:\n    /* \"Arbitrage_Swap.sol\":1836:1850  _uniswapRouter */\n  dup2\n    /* \"Arbitrage_Swap.sol\":1808:1851  uniswapRouter = ISwapRouter(_uniswapRouter) */\n  0xffffffffffffffffffffffffffffffffffffffff\n  and\n  0x80\n  dup2\n  0xffffffffffffffffffffffffffffffffffffffff\n  and\n  dup2\n  mstore\n  pop\n  pop\n    /* \"Arbitrage_Swap.sol\":1884:1894  _curvePool */\n  dup1\n    /* \"Arbitrage_Swap.sol\":1861:1895  curvePool = ICurvePool(_curvePool) */\n  0xffffffffffffffffffffffffffffffffffffffff\n  and\n  0xa0\n  dup2\n  0xffffffffffffffffffffffffffffffffffffffff\n  and\n  dup2\n  mstore\n  pop\n  pop\n    /* \"Arbitrage_Swap.sol\":1743:1902  constructor(address _uniswapRouter, address _curvePool){... */\n  pop\n  pop\n    /* \"Arbitrage_Swap.sol\":1244:5409  contract Arbitrage{... */\n  jump(tag_6)\n    /* \"#utility.yul\":88:205   */\ntag_8:\n    /* \"#utility.yul\":197:198   */\n  0x00\n    /* \"#utility.yul\":194:195   */\n  dup1\n    /* \"#utility.yul\":187:199   */\n  revert\n    /* \"#utility.yul\":334:460   */\ntag_10:\n    /* \"#utility.yul\":371:378   */\n  0x00\n    /* \"#utility.yul\":411:453   */\n  0xffffffffffffffffffffffffffffffffffffffff\n    /* \"#utility.yul\":404:409   */\n  dup3\n    /* \"#utility.yul\":400:454   */\n  and\n    /* \"#utility.yul\":389:454   */\n  swap1\n  pop\n    /* \"#utility.yul\":334:460   */\n  swap2\n  swap1\n  pop\n  jump\t// out\n    /* \"#utility.yul\":466:562   */\ntag_11:\n    /* \"#utility.yul\":503:510   */\n  0x00\n    /* \"#utility.yul\":532:556   */\n  tag_20\n    /* \"#utility.yul\":550:555   */\n  dup3\n    /* \"#utility.yul\":532:556   */\n  tag_10\n  jump\t// in\ntag_20:\n    /* \"#utility.yul\":521:556   */\n  swap1\n  pop\n    /* \"#utility.yul\":466:562   */\n  swap2\n  swap1\n  pop\n  jump\t// out\n    /* \"#utility.yul\":568:690   */\ntag_12:\n    /* \"#utility.yul\":641:665   */\n  tag_22\n    /* \"#utility.yul\":659:664   */\n  dup2\n    /* \"#utility.yul\":641:665   */\n  tag_11\n  jump\t// in\ntag_22:\n    /* \"#utility.yul\":634:639   */\n  dup2\n    /* \"#utility.yul\":631:666   */\n  eq\n    /* \"#utility.yul\":621:684   */\n  tag_23\n  jumpi\n    /* \"#utility.yul\":680:681   */\n  0x00\n    /* \"#utility.yul\":677:678   */\n  dup1\n    /* \"#utility.yul\":670:682   */\n  revert\n    /* \"#utility.yul\":621:684   */\ntag_23:\n    /* \"#utility.yul\":568:690   */\n  pop\n  jump\t// out\n    /* \"#utility.yul\":696:839   */\ntag_13:\n    /* \"#utility.yul\":753:758   */\n  0x00\n    /* \"#utility.yul\":784:790   */\n  dup2\n    /* \"#utility.yul\":778:791   */\n  mload\n    /* \"#utility.yul\":769:791   */\n  swap1\n  pop\n    /* \"#utility.yul\":800:833   */\n  tag_25\n    /* \"#utility.yul\":827:832   */\n  dup2\n    /* \"#utility.yul\":800:833   */\n  tag_12\n  jump\t// in\ntag_25:\n    /* \"#utility.yul\":696:839   */\n  swap3\n  swap2\n  pop\n  pop\n  jump\t// out\n    /* \"#utility.yul\":845:1352   */\ntag_3:\n    /* \"#utility.yul\":924:930   */\n  0x00\n    /* \"#utility.yul\":932:938   */\n  dup1\n    /* \"#utility.yul\":981:983   */\n  0x40\n    /* \"#utility.yul\":969:978   */\n  dup4\n    /* \"#utility.yul\":960:967   */\n  dup6\n    /* \"#utility.yul\":956:979   */\n  sub\n    /* \"#utility.yul\":952:984   */\n  slt\n    /* \"#utility.yul\":949:1068   */\n  iszero\n  tag_27\n  jumpi\n    /* \"#utility.yul\":987:1066   */\n  tag_28\n  tag_8\n  jump\t// in\ntag_28:\n    /* \"#utility.yul\":949:1068   */\ntag_27:\n    /* \"#utility.yul\":1107:1108   */\n  0x00\n    /* \"#utility.yul\":1132:1196   */\n  tag_29\n    /* \"#utility.yul\":1188:1195   */\n  dup6\n    /* \"#utility.yul\":1179:1185   */\n  dup3\n    /* \"#utility.yul\":1168:1177   */\n  dup7\n    /* \"#utility.yul\":1164:1186   */\n  add\n    /* \"#utility.yul\":1132:1196   */\n  tag_13\n  jump\t// in\ntag_29:\n    /* \"#utility.yul\":1122:1196   */\n  swap3\n  pop\n    /* \"#utility.yul\":1078:1206   */\n  pop\n    /* \"#utility.yul\":1245:1247   */\n  0x20\n    /* \"#utility.yul\":1271:1335   */\n  tag_30\n    /* \"#utility.yul\":1327:1334   */\n  dup6\n    /* \"#utility.yul\":1318:1324   */\n  dup3\n    /* \"#utility.yul\":1307:1316   */\n  dup7\n    /* \"#utility.yul\":1303:1325   */\n  add\n    /* \"#utility.yul\":1271:1335   */\n  tag_13\n  jump\t// in\ntag_30:\n    /* \"#utility.yul\":1261:1335   */\n  swap2\n  pop\n    /* \"#utility.yul\":1216:1345   */\n  pop\n    /* \"#utility.yul\":845:1352   */\n  swap3\n  pop\n  swap3\n  swap1\n  pop\n  jump\t// out\n    /* \"Arbitrage_Swap.sol\":1244:5409  contract Arbitrage{... */\ntag_6:\n  mload(0x80)\n  mload(0xa0)\n  codecopy(0x00, dataOffset(sub_0), dataSize(sub_0))\n  0x00\n  assignImmutable(\"0xd1bfb39175379108a717b7ef0f82b6e824d30ad965caf5d88e1c0f8ae725e4a0\")\n  0x00\n  assignImmutable(\"0xc54c5452b104751fde6e79369f1e7835722fc73c62bb7947ed8a0846a81f48b5\")\n  return(0x00, dataSize(sub_0))\nstop\n\nsub_0: assembly {\n        /* \"Arbitrage_Swap.sol\":1244:5409  contract Arbitrage{... */\n      mstore(0x40, 0x80)\n      jumpi(tag_1, lt(calldatasize, 0x04))\n      shr(0xe0, calldataload(0x00))\n      dup1\n      0x87b8d225\n      gt\n      tag_11\n      jumpi\n      dup1\n      0x87b8d225\n      eq\n      tag_6\n      jumpi\n      dup1\n      0xc477b581\n      eq\n      tag_7\n      jumpi\n      dup1\n      0xc9eb5e5a\n      eq\n      tag_8\n      jumpi\n      dup1\n      0xd22cc067\n      eq\n      tag_9\n      jumpi\n      dup1\n      0xe4eaab96\n      eq\n      tag_10\n      jumpi\n      jump(tag_1)\n    tag_11:\n      dup1\n      0x04907bbb\n      eq\n      tag_2\n      jumpi\n      dup1\n      0x1540e747\n      eq\n      tag_3\n      jumpi\n      dup1\n      0x218751b2\n      eq\n      tag_4\n      jumpi\n      dup1\n      0x735de9f7\n      eq\n      tag_5\n      jumpi\n    tag_1:\n      0x00\n      dup1\n      revert\n        /* \"Arbitrage_Swap.sol\":2564:2765  function buyEthOnCurve(uint256 usdcAmount, uint256 minEthAmount) public {... */\n    tag_2:\n      callvalue\n      dup1\n      iszero\n      tag_12\n      jumpi\n      0x00\n      dup1\n      revert\n    tag_12:\n      pop\n      tag_13\n      0x04\n      dup1\n      calldatasize\n      sub\n      dup2\n      add\n      swap1\n      tag_14\n      swap2\n      swap1\n      tag_15\n      jump\t// in\n    tag_14:\n      tag_16\n      jump\t// in\n    tag_13:\n      stop\n        /* \"Arbitrage_Swap.sol\":5252:5401  function getAmountonCurve(uint256 usdcamount) public view returns (uint256){... */\n    tag_3:\n      callvalue\n      dup1\n      iszero\n      tag_17\n      jumpi\n      0x00\n      dup1\n      revert\n    tag_17:\n      pop\n      tag_18\n      0x04\n      dup1\n      calldatasize\n      sub\n      dup2\n      add\n      swap1\n      tag_19\n      swap2\n      swap1\n      tag_20\n      jump\t// in\n    tag_19:\n      tag_21\n      jump\t// in\n    tag_18:\n      mload(0x40)\n      tag_22\n      swap2\n      swap1\n      tag_23\n      jump\t// in\n    tag_22:\n      mload(0x40)\n      dup1\n      swap2\n      sub\n      swap1\n      return\n        /* \"Arbitrage_Swap.sol\":1349:1386  ICurvePool public immutable curvePool */\n    tag_4:\n      callvalue\n      dup1\n      iszero\n      tag_24\n      jumpi\n      0x00\n      dup1\n      revert\n    tag_24:\n      pop\n      tag_25\n      tag_26\n      jump\t// in\n    tag_25:\n      mload(0x40)\n      tag_27\n      swap2\n      swap1\n      tag_28\n      jump\t// in\n    tag_27:\n      mload(0x40)\n      dup1\n      swap2\n      sub\n      swap1\n      return\n        /* \"Arbitrage_Swap.sol\":1301:1343  ISwapRouter public immutable uniswapRouter */\n    tag_5:\n      callvalue\n      dup1\n      iszero\n      tag_29\n      jumpi\n      0x00\n      dup1\n      revert\n    tag_29:\n      pop\n      tag_30\n      tag_31\n      jump\t// in\n    tag_30:\n      mload(0x40)\n      tag_32\n      swap2\n      swap1\n      tag_33\n      jump\t// in\n    tag_32:\n      mload(0x40)\n      dup1\n      swap2\n      sub\n      swap1\n      return\n        /* \"Arbitrage_Swap.sol\":3432:3626  function sellEthonCurve(uint256 ethAmount, uint256 minUsdcAmount) public {... */\n    tag_6:\n      callvalue\n      dup1\n      iszero\n      tag_34\n      jumpi\n      0x00\n      dup1\n      revert\n    tag_34:\n      pop\n      tag_35\n      0x04\n      dup1\n      calldatasize\n      sub\n      dup2\n      add\n      swap1\n      tag_36\n      swap2\n      swap1\n      tag_15\n      jump\t// in\n    tag_36:\n      tag_37\n      jump\t// in\n    tag_35:\n      stop\n        /* \"Arbitrage_Swap.sol\":4565:5248  function getAmountonUniswap(uint256 USDC_amount) public returns(uint256){... */\n    tag_7:\n      callvalue\n      dup1\n      iszero\n      tag_38\n      jumpi\n      0x00\n      dup1\n      revert\n    tag_38:\n      pop\n      tag_39\n      0x04\n      dup1\n      calldatasize\n      sub\n      dup2\n      add\n      swap1\n      tag_40\n      swap2\n      swap1\n      tag_20\n      jump\t// in\n    tag_40:\n      tag_41\n      jump\t// in\n    tag_39:\n      mload(0x40)\n      tag_42\n      swap2\n      swap1\n      tag_23\n      jump\t// in\n    tag_42:\n      mload(0x40)\n      dup1\n      swap2\n      sub\n      swap1\n      return\n        /* \"Arbitrage_Swap.sol\":2770:3427  function swapExactOutputSingleHop(uint256 ethamountout, uint256 maxUSDCamountin) public {... */\n    tag_8:\n      callvalue\n      dup1\n      iszero\n      tag_43\n      jumpi\n      0x00\n      dup1\n      revert\n    tag_43:\n      pop\n      tag_44\n      0x04\n      dup1\n      calldatasize\n      sub\n      dup2\n      add\n      swap1\n      tag_45\n      swap2\n      swap1\n      tag_15\n      jump\t// in\n    tag_45:\n      tag_46\n      jump\t// in\n    tag_44:\n      stop\n        /* \"Arbitrage_Swap.sol\":3631:4559  function exchangeArbitrage(uint256 usdcAmount) external payable{... */\n    tag_9:\n      tag_47\n      0x04\n      dup1\n      calldatasize\n      sub\n      dup2\n      add\n      swap1\n      tag_48\n      swap2\n      swap1\n      tag_20\n      jump\t// in\n    tag_48:\n      tag_49\n      jump\t// in\n    tag_47:\n      stop\n        /* \"Arbitrage_Swap.sol\":1912:2559  function swapExactInputSingleHop(uint256 usdcamountin, uint256 minETHamountout) public {... */\n    tag_10:\n      callvalue\n      dup1\n      iszero\n      tag_50\n      jumpi\n      0x00\n      dup1\n      revert\n    tag_50:\n      pop\n      tag_51\n      0x04\n      dup1\n      calldatasize\n      sub\n      dup2\n      add\n      swap1\n      tag_52\n      swap2\n      swap1\n      tag_15\n      jump\t// in\n    tag_52:\n      tag_53\n      jump\t// in\n    tag_51:\n      stop\n        /* \"Arbitrage_Swap.sol\":2564:2765  function buyEthOnCurve(uint256 usdcAmount, uint256 minEthAmount) public {... */\n    tag_16:\n        /* \"Arbitrage_Swap.sol\":2708:2717  curvePool */\n      immutable(\"0xd1bfb39175379108a717b7ef0f82b6e824d30ad965caf5d88e1c0f8ae725e4a0\")\n        /* \"Arbitrage_Swap.sol\":2708:2726  curvePool.exchange */\n      0xffffffffffffffffffffffffffffffffffffffff\n      and\n      0x3df02124\n        /* \"Arbitrage_Swap.sol\":2727:2728  0 */\n      0x00\n        /* \"Arbitrage_Swap.sol\":2730:2731  1 */\n      0x01\n        /* \"Arbitrage_Swap.sol\":2733:2743  usdcAmount */\n      dup6\n        /* \"Arbitrage_Swap.sol\":2745:2757  minEthAmount */\n      dup6\n        /* \"Arbitrage_Swap.sol\":2708:2758  curvePool.exchange(0, 1, usdcAmount, minEthAmount) */\n      mload(0x40)\n      dup6\n      0xffffffff\n      and\n      0xe0\n      shl\n      dup2\n      mstore\n      0x04\n      add\n      tag_55\n      swap5\n      swap4\n      swap3\n      swap2\n      swap1\n      tag_56\n      jump\t// in\n    tag_55:\n      0x20\n      mload(0x40)\n      dup1\n      dup4\n      sub\n      dup2\n      0x00\n      dup8\n      gas\n      call\n      iszero\n      dup1\n      iszero\n      tag_58\n      jumpi\n      returndatasize\n      0x00\n      dup1\n      returndatacopy\n      revert(0x00, returndatasize)\n    tag_58:\n      pop\n      pop\n      pop\n      pop\n      mload(0x40)\n      returndatasize\n      not(0x1f)\n      0x1f\n      dup3\n      add\n      and\n      dup3\n      add\n      dup1\n      0x40\n      mstore\n      pop\n      dup2\n      add\n      swap1\n      tag_59\n      swap2\n      swap1\n      tag_60\n      jump\t// in\n    tag_59:\n      pop\n        /* \"Arbitrage_Swap.sol\":2564:2765  function buyEthOnCurve(uint256 usdcAmount, uint256 minEthAmount) public {... */\n      pop\n      pop\n      jump\t// out\n        /* \"Arbitrage_Swap.sol\":5252:5401  function getAmountonCurve(uint256 usdcamount) public view returns (uint256){... */\n    tag_21:\n        /* \"Arbitrage_Swap.sol\":5319:5326  uint256 */\n      0x00\n        /* \"Arbitrage_Swap.sol\":5344:5353  curvePool */\n      immutable(\"0xd1bfb39175379108a717b7ef0f82b6e824d30ad965caf5d88e1c0f8ae725e4a0\")\n        /* \"Arbitrage_Swap.sol\":5344:5360  curvePool.get_dy */\n      0xffffffffffffffffffffffffffffffffffffffff\n      and\n      0x5e0d443f\n        /* \"Arbitrage_Swap.sol\":5361:5362  0 */\n      0x00\n        /* \"Arbitrage_Swap.sol\":5364:5365  1 */\n      0x01\n        /* \"Arbitrage_Swap.sol\":5367:5377  usdcamount */\n      dup6\n        /* \"Arbitrage_Swap.sol\":5344:5378  curvePool.get_dy(0, 1, usdcamount) */\n      mload(0x40)\n      dup5\n      0xffffffff\n      and\n      0xe0\n      shl\n      dup2\n      mstore\n      0x04\n      add\n      tag_62\n      swap4\n      swap3\n      swap2\n      swap1\n      tag_63\n      jump\t// in\n    tag_62:\n      0x20\n      mload(0x40)\n      dup1\n      dup4\n      sub\n      dup2\n      dup7\n      gas\n      staticcall\n      iszero\n      dup1\n      iszero\n      tag_65\n      jumpi\n      returndatasize\n      0x00\n      dup1\n      returndatacopy\n      revert(0x00, returndatasize)\n    tag_65:\n      pop\n      pop\n      pop\n      pop\n      mload(0x40)\n      returndatasize\n      not(0x1f)\n      0x1f\n      dup3\n      add\n      and\n      dup3\n      add\n      dup1\n      0x40\n      mstore\n      pop\n      dup2\n      add\n      swap1\n      tag_66\n      swap2\n      swap1\n      tag_60\n      jump\t// in\n    tag_66:\n        /* \"Arbitrage_Swap.sol\":5337:5378  return curvePool.get_dy(0, 1, usdcamount) */\n      swap1\n      pop\n        /* \"Arbitrage_Swap.sol\":5252:5401  function getAmountonCurve(uint256 usdcamount) public view returns (uint256){... */\n      swap2\n      swap1\n      pop\n      jump\t// out\n        /* \"Arbitrage_Swap.sol\":1349:1386  ICurvePool public immutable curvePool */\n    tag_26:\n      immutable(\"0xd1bfb39175379108a717b7ef0f82b6e824d30ad965caf5d88e1c0f8ae725e4a0\")\n      dup2\n      jump\t// out\n        /* \"Arbitrage_Swap.sol\":1301:1343  ISwapRouter public immutable uniswapRouter */\n    tag_31:\n      immutable(\"0xc54c5452b104751fde6e79369f1e7835722fc73c62bb7947ed8a0846a81f48b5\")\n      dup2\n      jump\t// out\n        /* \"Arbitrage_Swap.sol\":3432:3626  function sellEthonCurve(uint256 ethAmount, uint256 minUsdcAmount) public {... */\n    tag_37:\n        /* \"Arbitrage_Swap.sol\":1523:1565  0xC02aaA39b223FE8D0A0e5C4F27eAD9083C756Cc2 */\n      0xc02aaa39b223fe8d0a0e5c4f27ead9083c756cc2\n        /* \"Arbitrage_Swap.sol\":3515:3527  weth.approve */\n      0xffffffffffffffffffffffffffffffffffffffff\n      and\n      0x095ea7b3\n        /* \"Arbitrage_Swap.sol\":3536:3545  curvePool */\n      immutable(\"0xd1bfb39175379108a717b7ef0f82b6e824d30ad965caf5d88e1c0f8ae725e4a0\")\n        /* \"Arbitrage_Swap.sol\":3548:3561  minUsdcAmount */\n      dup4\n        /* \"Arbitrage_Swap.sol\":3515:3562  weth.approve(address(curvePool), minUsdcAmount) */\n      mload(0x40)\n      dup4\n      0xffffffff\n      and\n      0xe0\n      shl\n      dup2\n      mstore\n      0x04\n      add\n      tag_68\n      swap3\n      swap2\n      swap1\n      tag_69\n      jump\t// in\n    tag_68:\n      0x20\n      mload(0x40)\n      dup1\n      dup4\n      sub\n      dup2\n      0x00\n      dup8\n      gas\n      call\n      iszero\n      dup1\n      iszero\n      tag_71\n      jumpi\n      returndatasize\n      0x00\n      dup1\n      returndatacopy\n      revert(0x00, returndatasize)\n    tag_71:\n      pop\n      pop\n      pop\n      pop\n      mload(0x40)\n      returndatasize\n      not(0x1f)\n      0x1f\n      dup3\n      add\n      and\n      dup3\n      add\n      dup1\n      0x40\n      mstore\n      pop\n      dup2\n      add\n      swap1\n      tag_72\n      swap2\n      swap1\n      tag_73\n      jump\t// in\n    tag_72:\n      pop\n        /* \"Arbitrage_Swap.sol\":3572:3581  curvePool */\n      immutable(\"0xd1bfb39175379108a717b7ef0f82b6e824d30ad965caf5d88e1c0f8ae725e4a0\")\n        /* \"Arbitrage_Swap.sol\":3572:3590  curvePool.exchange */\n      0xffffffffffffffffffffffffffffffffffffffff\n      and\n      0x3df02124\n        /* \"Arbitrage_Swap.sol\":3591:3592  1 */\n      0x01\n        /* \"Arbitrage_Swap.sol\":3594:3595  0 */\n      0x00\n        /* \"Arbitrage_Swap.sol\":3597:3606  ethAmount */\n      dup6\n        /* \"Arbitrage_Swap.sol\":3608:3609  0 */\n      0x00\n        /* \"Arbitrage_Swap.sol\":3572:3610  curvePool.exchange(1, 0, ethAmount, 0) */\n      mload(0x40)\n      dup6\n      0xffffffff\n      and\n      0xe0\n      shl\n      dup2\n      mstore\n      0x04\n      add\n      tag_74\n      swap5\n      swap4\n      swap3\n      swap2\n      swap1\n      tag_75\n      jump\t// in\n    tag_74:\n      0x20\n      mload(0x40)\n      dup1\n      dup4\n      sub\n      dup2\n      0x00\n      dup8\n      gas\n      call\n      iszero\n      dup1\n      iszero\n      tag_77\n      jumpi\n      returndatasize\n      0x00\n      dup1\n      returndatacopy\n      revert(0x00, returndatasize)\n    tag_77:\n      pop\n      pop\n      pop\n      pop\n      mload(0x40)\n      returndatasize\n      not(0x1f)\n      0x1f\n      dup3\n      add\n      and\n      dup3\n      add\n      dup1\n      0x40\n      mstore\n      pop\n      dup2\n      add\n      swap1\n      tag_78\n      swap2\n      swap1\n      tag_60\n      jump\t// in\n    tag_78:\n      pop\n        /* \"Arbitrage_Swap.sol\":3432:3626  function sellEthonCurve(uint256 ethAmount, uint256 minUsdcAmount) public {... */\n      pop\n      pop\n      jump\t// out\n        /* \"Arbitrage_Swap.sol\":4565:5248  function getAmountonUniswap(uint256 USDC_amount) public returns(uint256){... */\n    tag_41:\n        /* \"Arbitrage_Swap.sol\":4629:4636  uint256 */\n      0x00\n        /* \"Arbitrage_Swap.sol\":4647:4695  ISwapRouter.ExactInputSingleParams memory params */\n      dup1\n        /* \"Arbitrage_Swap.sol\":4710:5038  ISwapRouter.ExactInputSingleParams({... */\n      mload(0x40)\n      dup1\n      0x0100\n      add\n      0x40\n      mstore\n      dup1\n        /* \"Arbitrage_Swap.sol\":1595:1637  0xA0b86991c6218b36c1d19D4a2e9Eb0cE3606eB48 */\n      0xa0b86991c6218b36c1d19d4a2e9eb0ce3606eb48\n        /* \"Arbitrage_Swap.sol\":4710:5038  ISwapRouter.ExactInputSingleParams({... */\n      0xffffffffffffffffffffffffffffffffffffffff\n      and\n      dup2\n      mstore\n      0x20\n      add\n        /* \"Arbitrage_Swap.sol\":1523:1565  0xC02aaA39b223FE8D0A0e5C4F27eAD9083C756Cc2 */\n      0xc02aaa39b223fe8d0a0e5c4f27ead9083c756cc2\n        /* \"Arbitrage_Swap.sol\":4710:5038  ISwapRouter.ExactInputSingleParams({... */\n      0xffffffffffffffffffffffffffffffffffffffff\n      and\n      dup2\n      mstore\n      0x20\n      add\n        /* \"Arbitrage_Swap.sol\":4828:4832  3000 */\n      0x0bb8\n        /* \"Arbitrage_Swap.sol\":4710:5038  ISwapRouter.ExactInputSingleParams({... */\n      0xffffff\n      and\n      dup2\n      mstore\n      0x20\n      add\n        /* \"Arbitrage_Swap.sol\":4860:4870  msg.sender */\n      caller\n        /* \"Arbitrage_Swap.sol\":4710:5038  ISwapRouter.ExactInputSingleParams({... */\n      0xffffffffffffffffffffffffffffffffffffffff\n      and\n      dup2\n      mstore\n      0x20\n      add\n        /* \"Arbitrage_Swap.sol\":4897:4912  block.timestamp */\n      timestamp\n        /* \"Arbitrage_Swap.sol\":4710:5038  ISwapRouter.ExactInputSingleParams({... */\n      dup2\n      mstore\n      0x20\n      add\n        /* \"Arbitrage_Swap.sol\":4939:4950  USDC_amount */\n      dup5\n        /* \"Arbitrage_Swap.sol\":4710:5038  ISwapRouter.ExactInputSingleParams({... */\n      dup2\n      mstore\n      0x20\n      add\n        /* \"Arbitrage_Swap.sol\":4985:4986  1 */\n      0x01\n        /* \"Arbitrage_Swap.sol\":4710:5038  ISwapRouter.ExactInputSingleParams({... */\n      dup2\n      mstore\n      0x20\n      add\n        /* \"Arbitrage_Swap.sol\":5022:5023  0 */\n      0x00\n        /* \"Arbitrage_Swap.sol\":4710:5038  ISwapRouter.ExactInputSingleParams({... */\n      0xffffffffffffffffffffffffffffffffffffffff\n      and\n      dup2\n      mstore\n      pop\n        /* \"Arbitrage_Swap.sol\":4647:5038  ISwapRouter.ExactInputSingleParams memory params =... */\n      swap1\n      pop\n        /* \"Arbitrage_Swap.sol\":5106:5123  uint256 amountOut */\n      0x00\n        /* \"Arbitrage_Swap.sol\":5126:5139  uniswapRouter */\n      immutable(\"0xc54c5452b104751fde6e79369f1e7835722fc73c62bb7947ed8a0846a81f48b5\")\n        /* \"Arbitrage_Swap.sol\":5126:5156  uniswapRouter.exactInputSingle */\n      0xffffffffffffffffffffffffffffffffffffffff\n      and\n      0x414bf389\n        /* \"Arbitrage_Swap.sol\":5157:5163  params */\n      dup4\n        /* \"Arbitrage_Swap.sol\":5126:5164  uniswapRouter.exactInputSingle(params) */\n      mload(0x40)\n      dup3\n      0xffffffff\n      and\n      0xe0\n      shl\n      dup2\n      mstore\n      0x04\n      add\n      tag_80\n      swap2\n      swap1\n      tag_81\n      jump\t// in\n    tag_80:\n      0x20\n      mload(0x40)\n      dup1\n      dup4\n      sub\n      dup2\n      0x00\n      dup8\n      gas\n      call\n      iszero\n      dup1\n      iszero\n      tag_83\n      jumpi\n      returndatasize\n      0x00\n      dup1\n      returndatacopy\n      revert(0x00, returndatasize)\n    tag_83:\n      pop\n      pop\n      pop\n      pop\n      mload(0x40)\n      returndatasize\n      not(0x1f)\n      0x1f\n      dup3\n      add\n      and\n      dup3\n      add\n      dup1\n      0x40\n      mstore\n      pop\n      dup2\n      add\n      swap1\n      tag_84\n      swap2\n      swap1\n      tag_60\n      jump\t// in\n    tag_84:\n        /* \"Arbitrage_Swap.sol\":5106:5164  uint256 amountOut = uniswapRouter.exactInputSingle(params) */\n      swap1\n      pop\n        /* \"Arbitrage_Swap.sol\":5233:5242  amountOut */\n      dup1\n        /* \"Arbitrage_Swap.sol\":5226:5242  return amountOut */\n      swap3\n      pop\n      pop\n      pop\n        /* \"Arbitrage_Swap.sol\":4565:5248  function getAmountonUniswap(uint256 USDC_amount) public returns(uint256){... */\n      swap2\n      swap1\n      pop\n      jump\t// out\n        /* \"Arbitrage_Swap.sol\":2770:3427  function swapExactOutputSingleHop(uint256 ethamountout, uint256 maxUSDCamountin) public {... */\n    tag_46:\n        /* \"Arbitrage_Swap.sol\":1523:1565  0xC02aaA39b223FE8D0A0e5C4F27eAD9083C756Cc2 */\n      0xc02aaa39b223fe8d0a0e5c4f27ead9083c756cc2\n        /* \"Arbitrage_Swap.sol\":2868:2885  weth.transferFrom */\n      0xffffffffffffffffffffffffffffffffffffffff\n      and\n      0x23b872dd\n        /* \"Arbitrage_Swap.sol\":2886:2896  msg.sender */\n      caller\n        /* \"Arbitrage_Swap.sol\":2906:2910  this */\n      address\n        /* \"Arbitrage_Swap.sol\":2913:2928  maxUSDCamountin */\n      dup5\n        /* \"Arbitrage_Swap.sol\":2868:2929  weth.transferFrom(msg.sender, address(this), maxUSDCamountin) */\n      mload(0x40)\n      dup5\n      0xffffffff\n      and\n      0xe0\n      shl\n      dup2\n      mstore\n      0x04\n      add\n      tag_86\n      swap4\n      swap3\n      swap2\n      swap1\n      tag_87\n      jump\t// in\n    tag_86:\n      0x20\n      mload(0x40)\n      dup1\n      dup4\n      sub\n      dup2\n      0x00\n      dup8\n      gas\n      call\n      iszero\n      dup1\n      iszero\n      tag_89\n      jumpi\n      returndatasize\n      0x00\n      dup1\n      returndatacopy\n      revert(0x00, returndatasize)\n    tag_89:\n      pop\n      pop\n      pop\n      pop\n      mload(0x40)\n      returndatasize\n      not(0x1f)\n      0x1f\n      dup3\n      add\n      and\n      dup3\n      add\n      dup1\n      0x40\n      mstore\n      pop\n      dup2\n      add\n      swap1\n      tag_90\n      swap2\n      swap1\n      tag_73\n      jump\t// in\n    tag_90:\n      pop\n        /* \"Arbitrage_Swap.sol\":1523:1565  0xC02aaA39b223FE8D0A0e5C4F27eAD9083C756Cc2 */\n      0xc02aaa39b223fe8d0a0e5c4f27ead9083c756cc2\n        /* \"Arbitrage_Swap.sol\":2939:2951  weth.approve */\n      0xffffffffffffffffffffffffffffffffffffffff\n      and\n      0x095ea7b3\n        /* \"Arbitrage_Swap.sol\":2960:2973  uniswapRouter */\n      immutable(\"0xc54c5452b104751fde6e79369f1e7835722fc73c62bb7947ed8a0846a81f48b5\")\n        /* \"Arbitrage_Swap.sol\":2976:2991  maxUSDCamountin */\n      dup4\n        /* \"Arbitrage_Swap.sol\":2939:2992  weth.approve(address(uniswapRouter), maxUSDCamountin) */\n      mload(0x40)\n      dup4\n      0xffffffff\n      and\n      0xe0\n      shl\n      dup2\n      mstore\n      0x04\n      add\n      tag_91\n      swap3\n      swap2\n      swap1\n      tag_69\n      jump\t// in\n    tag_91:\n      0x20\n      mload(0x40)\n      dup1\n      dup4\n      sub\n      dup2\n      0x00\n      dup8\n      gas\n      call\n      iszero\n      dup1\n      iszero\n      tag_93\n      jumpi\n      returndatasize\n      0x00\n      dup1\n      returndatacopy\n      revert(0x00, returndatasize)\n    tag_93:\n      pop\n      pop\n      pop\n      pop\n      mload(0x40)\n      returndatasize\n      not(0x1f)\n      0x1f\n      dup3\n      add\n      and\n      dup3\n      add\n      dup1\n      0x40\n      mstore\n      pop\n      dup2\n      add\n      swap1\n      tag_94\n      swap2\n      swap1\n      tag_73\n      jump\t// in\n    tag_94:\n      pop\n        /* \"Arbitrage_Swap.sol\":3003:3052  ISwapRouter.ExactOutputSingleParams memory params */\n      0x00\n        /* \"Arbitrage_Swap.sol\":3055:3371  ISwapRouter.ExactOutputSingleParams({... */\n      mload(0x40)\n      dup1\n      0x0100\n      add\n      0x40\n      mstore\n      dup1\n        /* \"Arbitrage_Swap.sol\":1595:1637  0xA0b86991c6218b36c1d19D4a2e9Eb0cE3606eB48 */\n      0xa0b86991c6218b36c1d19d4a2e9eb0ce3606eb48\n        /* \"Arbitrage_Swap.sol\":3055:3371  ISwapRouter.ExactOutputSingleParams({... */\n      0xffffffffffffffffffffffffffffffffffffffff\n      and\n      dup2\n      mstore\n      0x20\n      add\n        /* \"Arbitrage_Swap.sol\":1523:1565  0xC02aaA39b223FE8D0A0e5C4F27eAD9083C756Cc2 */\n      0xc02aaa39b223fe8d0a0e5c4f27ead9083c756cc2\n        /* \"Arbitrage_Swap.sol\":3055:3371  ISwapRouter.ExactOutputSingleParams({... */\n      0xffffffffffffffffffffffffffffffffffffffff\n      and\n      dup2\n      mstore\n      0x20\n      add\n        /* \"Arbitrage_Swap.sol\":3165:3169  3000 */\n      0x0bb8\n        /* \"Arbitrage_Swap.sol\":3055:3371  ISwapRouter.ExactOutputSingleParams({... */\n      dup2\n      mstore\n      0x20\n      add\n        /* \"Arbitrage_Swap.sol\":3228:3243  block.timestamp */\n      timestamp\n        /* \"Arbitrage_Swap.sol\":3055:3371  ISwapRouter.ExactOutputSingleParams({... */\n      dup2\n      mstore\n      0x20\n      add\n        /* \"Arbitrage_Swap.sol\":3194:3204  msg.sender */\n      caller\n        /* \"Arbitrage_Swap.sol\":3055:3371  ISwapRouter.ExactOutputSingleParams({... */\n      0xffffffffffffffffffffffffffffffffffffffff\n      and\n      dup2\n      mstore\n      0x20\n      add\n        /* \"Arbitrage_Swap.sol\":3268:3280  ethamountout */\n      dup5\n        /* \"Arbitrage_Swap.sol\":3055:3371  ISwapRouter.ExactOutputSingleParams({... */\n      dup2\n      mstore\n      0x20\n      add\n        /* \"Arbitrage_Swap.sol\":3311:3326  maxUSDCamountin */\n      dup4\n        /* \"Arbitrage_Swap.sol\":3055:3371  ISwapRouter.ExactOutputSingleParams({... */\n      dup2\n      mstore\n      0x20\n      add\n        /* \"Arbitrage_Swap.sol\":3359:3360  0 */\n      0x00\n        /* \"Arbitrage_Swap.sol\":3055:3371  ISwapRouter.ExactOutputSingleParams({... */\n      0xffffffffffffffffffffffffffffffffffffffff\n      and\n      dup2\n      mstore\n      pop\n        /* \"Arbitrage_Swap.sol\":3003:3371  ISwapRouter.ExactOutputSingleParams memory params = ISwapRouter.ExactOutputSingleParams({... */\n      swap1\n      pop\n        /* \"Arbitrage_Swap.sol\":3381:3394  uniswapRouter */\n      immutable(\"0xc54c5452b104751fde6e79369f1e7835722fc73c62bb7947ed8a0846a81f48b5\")\n        /* \"Arbitrage_Swap.sol\":3381:3412  uniswapRouter.exactOutputSingle */\n      0xffffffffffffffffffffffffffffffffffffffff\n      and\n      0x26a966c4\n        /* \"Arbitrage_Swap.sol\":3413:3419  params */\n      dup3\n        /* \"Arbitrage_Swap.sol\":3381:3420  uniswapRouter.exactOutputSingle(params) */\n      mload(0x40)\n      dup3\n      0xffffffff\n      and\n      0xe0\n      shl\n      dup2\n      mstore\n      0x04\n      add\n      tag_95\n      swap2\n      swap1\n      tag_96\n      jump\t// in\n    tag_95:\n      0x20\n      mload(0x40)\n      dup1\n      dup4\n      sub\n      dup2\n      0x00\n      dup8\n      gas\n      call\n      iszero\n      dup1\n      iszero\n      tag_98\n      jumpi\n      returndatasize\n      0x00\n      dup1\n      returndatacopy\n      revert(0x00, returndatasize)\n    tag_98:\n      pop\n      pop\n      pop\n      pop\n      mload(0x40)\n      returndatasize\n      not(0x1f)\n      0x1f\n      dup3\n      add\n      and\n      dup3\n      add\n      dup1\n      0x40\n      mstore\n      pop\n      dup2\n      add\n      swap1\n      tag_99\n      swap2\n      swap1\n      tag_60\n      jump\t// in\n    tag_99:\n      pop\n        /* \"Arbitrage_Swap.sol\":2858:3427  {... */\n      pop\n        /* \"Arbitrage_Swap.sol\":2770:3427  function swapExactOutputSingleHop(uint256 ethamountout, uint256 maxUSDCamountin) public {... */\n      pop\n      pop\n      jump\t// out\n        /* \"Arbitrage_Swap.sol\":3631:4559  function exchangeArbitrage(uint256 usdcAmount) external payable{... */\n    tag_49:\n        /* \"Arbitrage_Swap.sol\":3704:3721  uint256 allowance */\n      0x00\n        /* \"Arbitrage_Swap.sol\":1595:1637  0xA0b86991c6218b36c1d19D4a2e9Eb0cE3606eB48 */\n      0xa0b86991c6218b36c1d19d4a2e9eb0ce3606eb48\n        /* \"Arbitrage_Swap.sol\":3724:3738  usdc.allowance */\n      0xffffffffffffffffffffffffffffffffffffffff\n      and\n      0xdd62ed3e\n        /* \"Arbitrage_Swap.sol\":3739:3749  msg.sender */\n      caller\n        /* \"Arbitrage_Swap.sol\":3759:3763  this */\n      address\n        /* \"Arbitrage_Swap.sol\":3724:3765  usdc.allowance(msg.sender, address(this)) */\n      mload(0x40)\n      dup4\n      0xffffffff\n      and\n      0xe0\n      shl\n      dup2\n      mstore\n      0x04\n      add\n      tag_101\n      swap3\n      swap2\n      swap1\n      tag_102\n      jump\t// in\n    tag_101:\n      0x20\n      mload(0x40)\n      dup1\n      dup4\n      sub\n      dup2\n      dup7\n      gas\n      staticcall\n      iszero\n      dup1\n      iszero\n      tag_104\n      jumpi\n      returndatasize\n      0x00\n      dup1\n      returndatacopy\n      revert(0x00, returndatasize)\n    tag_104:\n      pop\n      pop\n      pop\n      pop\n      mload(0x40)\n      returndatasize\n      not(0x1f)\n      0x1f\n      dup3\n      add\n      and\n      dup3\n      add\n      dup1\n      0x40\n      mstore\n      pop\n      dup2\n      add\n      swap1\n      tag_105\n      swap2\n      swap1\n      tag_60\n      jump\t// in\n    tag_105:\n        /* \"Arbitrage_Swap.sol\":3704:3765  uint256 allowance = usdc.allowance(msg.sender, address(this)) */\n      swap1\n      pop\n        /* \"Arbitrage_Swap.sol\":3775:3790  uint256 balance */\n      0x00\n        /* \"Arbitrage_Swap.sol\":1595:1637  0xA0b86991c6218b36c1d19D4a2e9Eb0cE3606eB48 */\n      0xa0b86991c6218b36c1d19d4a2e9eb0ce3606eb48\n        /* \"Arbitrage_Swap.sol\":3793:3807  usdc.balanceOf */\n      0xffffffffffffffffffffffffffffffffffffffff\n      and\n      0x70a08231\n        /* \"Arbitrage_Swap.sol\":3808:3818  msg.sender */\n      caller\n        /* \"Arbitrage_Swap.sol\":3793:3819  usdc.balanceOf(msg.sender) */\n      mload(0x40)\n      dup3\n      0xffffffff\n      and\n      0xe0\n      shl\n      dup2\n      mstore\n      0x04\n      add\n      tag_106\n      swap2\n      swap1\n      tag_107\n      jump\t// in\n    tag_106:\n      0x20\n      mload(0x40)\n      dup1\n      dup4\n      sub\n      dup2\n      dup7\n      gas\n      staticcall\n      iszero\n      dup1\n      iszero\n      tag_109\n      jumpi\n      returndatasize\n      0x00\n      dup1\n      returndatacopy\n      revert(0x00, returndatasize)\n    tag_109:\n      pop\n      pop\n      pop\n      pop\n      mload(0x40)\n      returndatasize\n      not(0x1f)\n      0x1f\n      dup3\n      add\n      and\n      dup3\n      add\n      dup1\n      0x40\n      mstore\n      pop\n      dup2\n      add\n      swap1\n      tag_110\n      swap2\n      swap1\n      tag_60\n      jump\t// in\n    tag_110:\n        /* \"Arbitrage_Swap.sol\":3775:3819  uint256 balance = usdc.balanceOf(msg.sender) */\n      swap1\n      pop\n        /* \"Arbitrage_Swap.sol\":3851:3861  usdcAmount */\n      dup3\n        /* \"Arbitrage_Swap.sol\":3838:3847  allowance */\n      dup3\n        /* \"Arbitrage_Swap.sol\":3838:3861  allowance >= usdcAmount */\n      lt\n      iszero\n        /* \"Arbitrage_Swap.sol\":3830:3883  require(allowance >= usdcAmount, \"Allowance too low\") */\n      tag_111\n      jumpi\n      mload(0x40)\n      0x08c379a000000000000000000000000000000000000000000000000000000000\n      dup2\n      mstore\n      0x04\n      add\n      tag_112\n      swap1\n      tag_113\n      jump\t// in\n    tag_112:\n      mload(0x40)\n      dup1\n      swap2\n      sub\n      swap1\n      revert\n    tag_111:\n        /* \"Arbitrage_Swap.sol\":3912:3922  usdcAmount */\n      dup3\n        /* \"Arbitrage_Swap.sol\":3901:3908  balance */\n      dup2\n        /* \"Arbitrage_Swap.sol\":3901:3922  balance >= usdcAmount */\n      lt\n      iszero\n        /* \"Arbitrage_Swap.sol\":3893:3947  require(balance >= usdcAmount, \"Insufficient balance\") */\n      tag_114\n      jumpi\n      mload(0x40)\n      0x08c379a000000000000000000000000000000000000000000000000000000000\n      dup2\n      mstore\n      0x04\n      add\n      tag_115\n      swap1\n      tag_116\n      jump\t// in\n    tag_115:\n      mload(0x40)\n      dup1\n      swap2\n      sub\n      swap1\n      revert\n    tag_114:\n        /* \"Arbitrage_Swap.sol\":1595:1637  0xA0b86991c6218b36c1d19D4a2e9Eb0cE3606eB48 */\n      0xa0b86991c6218b36c1d19d4a2e9eb0ce3606eb48\n        /* \"Arbitrage_Swap.sol\":3958:3975  usdc.transferFrom */\n      0xffffffffffffffffffffffffffffffffffffffff\n      and\n      0x23b872dd\n        /* \"Arbitrage_Swap.sol\":3976:3986  msg.sender */\n      caller\n        /* \"Arbitrage_Swap.sol\":3996:4000  this */\n      address\n        /* \"Arbitrage_Swap.sol\":4003:4013  usdcAmount */\n      dup7\n        /* \"Arbitrage_Swap.sol\":3958:4014  usdc.transferFrom(msg.sender, address(this), usdcAmount) */\n      mload(0x40)\n      dup5\n      0xffffffff\n      and\n      0xe0\n      shl\n      dup2\n      mstore\n      0x04\n      add\n      tag_117\n      swap4\n      swap3\n      swap2\n      swap1\n      tag_87\n      jump\t// in\n    tag_117:\n      0x20\n      mload(0x40)\n      dup1\n      dup4\n      sub\n      dup2\n      0x00\n      dup8\n      gas\n      call\n      iszero\n      dup1\n      iszero\n      tag_119\n      jumpi\n      returndatasize\n      0x00\n      dup1\n      returndatacopy\n      revert(0x00, returndatasize)\n    tag_119:\n      pop\n      pop\n      pop\n      pop\n      mload(0x40)\n      returndatasize\n      not(0x1f)\n      0x1f\n      dup3\n      add\n      and\n      dup3\n      add\n      dup1\n      0x40\n      mstore\n      pop\n      dup2\n      add\n      swap1\n      tag_120\n      swap2\n      swap1\n      tag_73\n      jump\t// in\n    tag_120:\n      pop\n        /* \"Arbitrage_Swap.sol\":4024:4045  uint256 uniswap_price */\n      0x00\n        /* \"Arbitrage_Swap.sol\":4048:4078  getAmountonUniswap(usdcAmount) */\n      tag_121\n        /* \"Arbitrage_Swap.sol\":4067:4077  usdcAmount */\n      dup5\n        /* \"Arbitrage_Swap.sol\":4048:4066  getAmountonUniswap */\n      tag_41\n        /* \"Arbitrage_Swap.sol\":4048:4078  getAmountonUniswap(usdcAmount) */\n      jump\t// in\n    tag_121:\n        /* \"Arbitrage_Swap.sol\":4024:4078  uint256 uniswap_price = getAmountonUniswap(usdcAmount) */\n      swap1\n      pop\n        /* \"Arbitrage_Swap.sol\":4088:4107  uint256 curve_price */\n      0x00\n        /* \"Arbitrage_Swap.sol\":4110:4138  getAmountonCurve(usdcAmount) */\n      tag_122\n        /* \"Arbitrage_Swap.sol\":4127:4137  usdcAmount */\n      dup6\n        /* \"Arbitrage_Swap.sol\":4110:4126  getAmountonCurve */\n      tag_21\n        /* \"Arbitrage_Swap.sol\":4110:4138  getAmountonCurve(usdcAmount) */\n      jump\t// in\n    tag_122:\n        /* \"Arbitrage_Swap.sol\":4088:4138  uint256 curve_price = getAmountonCurve(usdcAmount) */\n      swap1\n      pop\n        /* \"Arbitrage_Swap.sol\":4169:4180  curve_price */\n      dup1\n        /* \"Arbitrage_Swap.sol\":4153:4166  uniswap_price */\n      dup3\n        /* \"Arbitrage_Swap.sol\":4153:4180  uniswap_price > curve_price */\n      gt\n        /* \"Arbitrage_Swap.sol\":4149:4536  if (uniswap_price > curve_price){... */\n      iszero\n      tag_123\n      jumpi\n        /* \"Arbitrage_Swap.sol\":4267:4305  buyEthOnCurve(usdcAmount, curve_price) */\n      tag_124\n        /* \"Arbitrage_Swap.sol\":4281:4291  usdcAmount */\n      dup6\n        /* \"Arbitrage_Swap.sol\":4293:4304  curve_price */\n      dup3\n        /* \"Arbitrage_Swap.sol\":4267:4280  buyEthOnCurve */\n      tag_16\n        /* \"Arbitrage_Swap.sol\":4267:4305  buyEthOnCurve(usdcAmount, curve_price) */\n      jump\t// in\n    tag_124:\n        /* \"Arbitrage_Swap.sol\":4319:4368  swapExactOutputSingleHop(usdcAmount, curve_price) */\n      tag_125\n        /* \"Arbitrage_Swap.sol\":4344:4354  usdcAmount */\n      dup6\n        /* \"Arbitrage_Swap.sol\":4356:4367  curve_price */\n      dup3\n        /* \"Arbitrage_Swap.sol\":4319:4343  swapExactOutputSingleHop */\n      tag_46\n        /* \"Arbitrage_Swap.sol\":4319:4368  swapExactOutputSingleHop(usdcAmount, curve_price) */\n      jump\t// in\n    tag_125:\n        /* \"Arbitrage_Swap.sol\":4149:4536  if (uniswap_price > curve_price){... */\n      jump(tag_126)\n    tag_123:\n        /* \"Arbitrage_Swap.sol\":4419:4469  swapExactInputSingleHop(usdcAmount, uniswap_price) */\n      tag_127\n        /* \"Arbitrage_Swap.sol\":4443:4453  usdcAmount */\n      dup6\n        /* \"Arbitrage_Swap.sol\":4455:4468  uniswap_price */\n      dup4\n        /* \"Arbitrage_Swap.sol\":4419:4442  swapExactInputSingleHop */\n      tag_53\n        /* \"Arbitrage_Swap.sol\":4419:4469  swapExactInputSingleHop(usdcAmount, uniswap_price) */\n      jump\t// in\n    tag_127:\n        /* \"Arbitrage_Swap.sol\":4483:4524  sellEthonCurve(uniswap_price, usdcAmount) */\n      tag_128\n        /* \"Arbitrage_Swap.sol\":4498:4511  uniswap_price */\n      dup3\n        /* \"Arbitrage_Swap.sol\":4513:4523  usdcAmount */\n      dup7\n        /* \"Arbitrage_Swap.sol\":4483:4497  sellEthonCurve */\n      tag_37\n        /* \"Arbitrage_Swap.sol\":4483:4524  sellEthonCurve(uniswap_price, usdcAmount) */\n      jump\t// in\n    tag_128:\n        /* \"Arbitrage_Swap.sol\":4149:4536  if (uniswap_price > curve_price){... */\n    tag_126:\n        /* \"Arbitrage_Swap.sol\":3694:4559  {... */\n      pop\n      pop\n      pop\n      pop\n        /* \"Arbitrage_Swap.sol\":3631:4559  function exchangeArbitrage(uint256 usdcAmount) external payable{... */\n      pop\n      jump\t// out\n        /* \"Arbitrage_Swap.sol\":1912:2559  function swapExactInputSingleHop(uint256 usdcamountin, uint256 minETHamountout) public {... */\n    tag_53:\n        /* \"Arbitrage_Swap.sol\":1595:1637  0xA0b86991c6218b36c1d19D4a2e9Eb0cE3606eB48 */\n      0xa0b86991c6218b36c1d19d4a2e9eb0ce3606eb48\n        /* \"Arbitrage_Swap.sol\":2009:2026  usdc.transferFrom */\n      0xffffffffffffffffffffffffffffffffffffffff\n      and\n      0x23b872dd\n        /* \"Arbitrage_Swap.sol\":2027:2037  msg.sender */\n      caller\n        /* \"Arbitrage_Swap.sol\":2047:2051  this */\n      address\n        /* \"Arbitrage_Swap.sol\":2054:2066  usdcamountin */\n      dup6\n        /* \"Arbitrage_Swap.sol\":2009:2067  usdc.transferFrom(msg.sender, address(this), usdcamountin) */\n      mload(0x40)\n      dup5\n      0xffffffff\n      and\n      0xe0\n      shl\n      dup2\n      mstore\n      0x04\n      add\n      tag_130\n      swap4\n      swap3\n      swap2\n      swap1\n      tag_87\n      jump\t// in\n    tag_130:\n      0x20\n      mload(0x40)\n      dup1\n      dup4\n      sub\n      dup2\n      0x00\n      dup8\n      gas\n      call\n      iszero\n      dup1\n      iszero\n      tag_132\n      jumpi\n      returndatasize\n      0x00\n      dup1\n      returndatacopy\n      revert(0x00, returndatasize)\n    tag_132:\n      pop\n      pop\n      pop\n      pop\n      mload(0x40)\n      returndatasize\n      not(0x1f)\n      0x1f\n      dup3\n      add\n      and\n      dup3\n      add\n      dup1\n      0x40\n      mstore\n      pop\n      dup2\n      add\n      swap1\n      tag_133\n      swap2\n      swap1\n      tag_73\n      jump\t// in\n    tag_133:\n      pop\n        /* \"Arbitrage_Swap.sol\":1595:1637  0xA0b86991c6218b36c1d19D4a2e9Eb0cE3606eB48 */\n      0xa0b86991c6218b36c1d19d4a2e9eb0ce3606eb48\n        /* \"Arbitrage_Swap.sol\":2077:2089  usdc.approve */\n      0xffffffffffffffffffffffffffffffffffffffff\n      and\n      0x095ea7b3\n        /* \"Arbitrage_Swap.sol\":2098:2111  uniswapRouter */\n      immutable(\"0xc54c5452b104751fde6e79369f1e7835722fc73c62bb7947ed8a0846a81f48b5\")\n        /* \"Arbitrage_Swap.sol\":2114:2126  usdcamountin */\n      dup5\n        /* \"Arbitrage_Swap.sol\":2077:2127  usdc.approve(address(uniswapRouter), usdcamountin) */\n      mload(0x40)\n      dup4\n      0xffffffff\n      and\n      0xe0\n      shl\n      dup2\n      mstore\n      0x04\n      add\n      tag_134\n      swap3\n      swap2\n      swap1\n      tag_69\n      jump\t// in\n    tag_134:\n      0x20\n      mload(0x40)\n      dup1\n      dup4\n      sub\n      dup2\n      0x00\n      dup8\n      gas\n      call\n      iszero\n      dup1\n      iszero\n      tag_136\n      jumpi\n      returndatasize\n      0x00\n      dup1\n      returndatacopy\n      revert(0x00, returndatasize)\n    tag_136:\n      pop\n      pop\n      pop\n      pop\n      mload(0x40)\n      returndatasize\n      not(0x1f)\n      0x1f\n      dup3\n      add\n      and\n      dup3\n      add\n      dup1\n      0x40\n      mstore\n      pop\n      dup2\n      add\n      swap1\n      tag_137\n      swap2\n      swap1\n      tag_73\n      jump\t// in\n    tag_137:\n      pop\n        /* \"Arbitrage_Swap.sol\":2138:2186  ISwapRouter.ExactInputSingleParams memory params */\n      0x00\n        /* \"Arbitrage_Swap.sol\":2189:2504  ISwapRouter.ExactInputSingleParams({... */\n      mload(0x40)\n      dup1\n      0x0100\n      add\n      0x40\n      mstore\n      dup1\n        /* \"Arbitrage_Swap.sol\":1595:1637  0xA0b86991c6218b36c1d19D4a2e9Eb0cE3606eB48 */\n      0xa0b86991c6218b36c1d19d4a2e9eb0ce3606eb48\n        /* \"Arbitrage_Swap.sol\":2189:2504  ISwapRouter.ExactInputSingleParams({... */\n      0xffffffffffffffffffffffffffffffffffffffff\n      and\n      dup2\n      mstore\n      0x20\n      add\n        /* \"Arbitrage_Swap.sol\":1523:1565  0xC02aaA39b223FE8D0A0e5C4F27eAD9083C756Cc2 */\n      0xc02aaa39b223fe8d0a0e5c4f27ead9083c756cc2\n        /* \"Arbitrage_Swap.sol\":2189:2504  ISwapRouter.ExactInputSingleParams({... */\n      0xffffffffffffffffffffffffffffffffffffffff\n      and\n      dup2\n      mstore\n      0x20\n      add\n        /* \"Arbitrage_Swap.sol\":2298:2302  3000 */\n      0x0bb8\n        /* \"Arbitrage_Swap.sol\":2189:2504  ISwapRouter.ExactInputSingleParams({... */\n      0xffffff\n      and\n      dup2\n      mstore\n      0x20\n      add\n        /* \"Arbitrage_Swap.sol\":2327:2337  msg.sender */\n      caller\n        /* \"Arbitrage_Swap.sol\":2189:2504  ISwapRouter.ExactInputSingleParams({... */\n      0xffffffffffffffffffffffffffffffffffffffff\n      and\n      dup2\n      mstore\n      0x20\n      add\n        /* \"Arbitrage_Swap.sol\":2361:2376  block.timestamp */\n      timestamp\n        /* \"Arbitrage_Swap.sol\":2189:2504  ISwapRouter.ExactInputSingleParams({... */\n      dup2\n      mstore\n      0x20\n      add\n        /* \"Arbitrage_Swap.sol\":2400:2412  usdcamountin */\n      dup5\n        /* \"Arbitrage_Swap.sol\":2189:2504  ISwapRouter.ExactInputSingleParams({... */\n      dup2\n      mstore\n      0x20\n      add\n        /* \"Arbitrage_Swap.sol\":2444:2459  minETHamountout */\n      dup4\n        /* \"Arbitrage_Swap.sol\":2189:2504  ISwapRouter.ExactInputSingleParams({... */\n      dup2\n      mstore\n      0x20\n      add\n        /* \"Arbitrage_Swap.sol\":2492:2493  0 */\n      0x00\n        /* \"Arbitrage_Swap.sol\":2189:2504  ISwapRouter.ExactInputSingleParams({... */\n      0xffffffffffffffffffffffffffffffffffffffff\n      and\n      dup2\n      mstore\n      pop\n        /* \"Arbitrage_Swap.sol\":2138:2504  ISwapRouter.ExactInputSingleParams memory params = ISwapRouter.ExactInputSingleParams({... */\n      swap1\n      pop\n        /* \"Arbitrage_Swap.sol\":2514:2527  uniswapRouter */\n      immutable(\"0xc54c5452b104751fde6e79369f1e7835722fc73c62bb7947ed8a0846a81f48b5\")\n        /* \"Arbitrage_Swap.sol\":2514:2544  uniswapRouter.exactInputSingle */\n      0xffffffffffffffffffffffffffffffffffffffff\n      and\n      0x414bf389\n        /* \"Arbitrage_Swap.sol\":2545:2551  params */\n      dup3\n        /* \"Arbitrage_Swap.sol\":2514:2552  uniswapRouter.exactInputSingle(params) */\n      mload(0x40)\n      dup3\n      0xffffffff\n      and\n      0xe0\n      shl\n      dup2\n      mstore\n      0x04\n      add\n      tag_138\n      swap2\n      swap1\n      tag_81\n      jump\t// in\n    tag_138:\n      0x20\n      mload(0x40)\n      dup1\n      dup4\n      sub\n      dup2\n      0x00\n      dup8\n      gas\n      call\n      iszero\n      dup1\n      iszero\n      tag_140\n      jumpi\n      returndatasize\n      0x00\n      dup1\n      returndatacopy\n      revert(0x00, returndatasize)\n    tag_140:\n      pop\n      pop\n      pop\n      pop\n      mload(0x40)\n      returndatasize\n      not(0x1f)\n      0x1f\n      dup3\n      add\n      and\n      dup3\n      add\n      dup1\n      0x40\n      mstore\n      pop\n      dup2\n      add\n      swap1\n      tag_141\n      swap2\n      swap1\n      tag_60\n      jump\t// in\n    tag_141:\n      pop\n        /* \"Arbitrage_Swap.sol\":1999:2559  {... */\n      pop\n        /* \"Arbitrage_Swap.sol\":1912:2559  function swapExactInputSingleHop(uint256 usdcamountin, uint256 minETHamountout) public {... */\n      pop\n      pop\n      jump\t// out\n        /* \"#utility.yul\":88:205   */\n    tag_143:\n        /* \"#utility.yul\":197:198   */\n      0x00\n        /* \"#utility.yul\":194:195   */\n      dup1\n        /* \"#utility.yul\":187:199   */\n      revert\n        /* \"#utility.yul\":334:411   */\n    tag_145:\n        /* \"#utility.yul\":371:378   */\n      0x00\n        /* \"#utility.yul\":400:405   */\n      dup2\n        /* \"#utility.yul\":389:405   */\n      swap1\n      pop\n        /* \"#utility.yul\":334:411   */\n      swap2\n      swap1\n      pop\n      jump\t// out\n        /* \"#utility.yul\":417:539   */\n    tag_146:\n        /* \"#utility.yul\":490:514   */\n      tag_190\n        /* \"#utility.yul\":508:513   */\n      dup2\n        /* \"#utility.yul\":490:514   */\n      tag_145\n      jump\t// in\n    tag_190:\n        /* \"#utility.yul\":483:488   */\n      dup2\n        /* \"#utility.yul\":480:515   */\n      eq\n        /* \"#utility.yul\":470:533   */\n      tag_191\n      jumpi\n        /* \"#utility.yul\":529:530   */\n      0x00\n        /* \"#utility.yul\":526:527   */\n      dup1\n        /* \"#utility.yul\":519:531   */\n      revert\n        /* \"#utility.yul\":470:533   */\n    tag_191:\n        /* \"#utility.yul\":417:539   */\n      pop\n      jump\t// out\n        /* \"#utility.yul\":545:684   */\n    tag_147:\n        /* \"#utility.yul\":591:596   */\n      0x00\n        /* \"#utility.yul\":629:635   */\n      dup2\n        /* \"#utility.yul\":616:636   */\n      calldataload\n        /* \"#utility.yul\":607:636   */\n      swap1\n      pop\n        /* \"#utility.yul\":645:678   */\n      tag_193\n        /* \"#utility.yul\":672:677   */\n      dup2\n        /* \"#utility.yul\":645:678   */\n      tag_146\n      jump\t// in\n    tag_193:\n        /* \"#utility.yul\":545:684   */\n      swap3\n      swap2\n      pop\n      pop\n      jump\t// out\n        /* \"#utility.yul\":690:1164   */\n    tag_15:\n        /* \"#utility.yul\":758:764   */\n      0x00\n        /* \"#utility.yul\":766:772   */\n      dup1\n        /* \"#utility.yul\":815:817   */\n      0x40\n        /* \"#utility.yul\":803:812   */\n      dup4\n        /* \"#utility.yul\":794:801   */\n      dup6\n        /* \"#utility.yul\":790:813   */\n      sub\n        /* \"#utility.yul\":786:818   */\n      slt\n        /* \"#utility.yul\":783:902   */\n      iszero\n      tag_195\n      jumpi\n        /* \"#utility.yul\":821:900   */\n      tag_196\n      tag_143\n      jump\t// in\n    tag_196:\n        /* \"#utility.yul\":783:902   */\n    tag_195:\n        /* \"#utility.yul\":941:942   */\n      0x00\n        /* \"#utility.yul\":966:1019   */\n      tag_197\n        /* \"#utility.yul\":1011:1018   */\n      dup6\n        /* \"#utility.yul\":1002:1008   */\n      dup3\n        /* \"#utility.yul\":991:1000   */\n      dup7\n        /* \"#utility.yul\":987:1009   */\n      add\n        /* \"#utility.yul\":966:1019   */\n      tag_147\n      jump\t// in\n    tag_197:\n        /* \"#utility.yul\":956:1019   */\n      swap3\n      pop\n        /* \"#utility.yul\":912:1029   */\n      pop\n        /* \"#utility.yul\":1068:1070   */\n      0x20\n        /* \"#utility.yul\":1094:1147   */\n      tag_198\n        /* \"#utility.yul\":1139:1146   */\n      dup6\n        /* \"#utility.yul\":1130:1136   */\n      dup3\n        /* \"#utility.yul\":1119:1128   */\n      dup7\n        /* \"#utility.yul\":1115:1137   */\n      add\n        /* \"#utility.yul\":1094:1147   */\n      tag_147\n      jump\t// in\n    tag_198:\n        /* \"#utility.yul\":1084:1147   */\n      swap2\n      pop\n        /* \"#utility.yul\":1039:1157   */\n      pop\n        /* \"#utility.yul\":690:1164   */\n      swap3\n      pop\n      swap3\n      swap1\n      pop\n      jump\t// out\n        /* \"#utility.yul\":1170:1499   */\n    tag_20:\n        /* \"#utility.yul\":1229:1235   */\n      0x00\n        /* \"#utility.yul\":1278:1280   */\n      0x20\n        /* \"#utility.yul\":1266:1275   */\n      dup3\n        /* \"#utility.yul\":1257:1264   */\n      dup5\n        /* \"#utility.yul\":1253:1276   */\n      sub\n        /* \"#utility.yul\":1249:1281   */\n      slt\n        /* \"#utility.yul\":1246:1365   */\n      iszero\n      tag_200\n      jumpi\n        /* \"#utility.yul\":1284:1363   */\n      tag_201\n      tag_143\n      jump\t// in\n    tag_201:\n        /* \"#utility.yul\":1246:1365   */\n    tag_200:\n        /* \"#utility.yul\":1404:1405   */\n      0x00\n        /* \"#utility.yul\":1429:1482   */\n      tag_202\n        /* \"#utility.yul\":1474:1481   */\n      dup5\n        /* \"#utility.yul\":1465:1471   */\n      dup3\n        /* \"#utility.yul\":1454:1463   */\n      dup6\n        /* \"#utility.yul\":1450:1472   */\n      add\n        /* \"#utility.yul\":1429:1482   */\n      tag_147\n      jump\t// in\n    tag_202:\n        /* \"#utility.yul\":1419:1482   */\n      swap2\n      pop\n        /* \"#utility.yul\":1375:1492   */\n      pop\n        /* \"#utility.yul\":1170:1499   */\n      swap3\n      swap2\n      pop\n      pop\n      jump\t// out\n        /* \"#utility.yul\":1505:1623   */\n    tag_148:\n        /* \"#utility.yul\":1592:1616   */\n      tag_204\n        /* \"#utility.yul\":1610:1615   */\n      dup2\n        /* \"#utility.yul\":1592:1616   */\n      tag_145\n      jump\t// in\n    tag_204:\n        /* \"#utility.yul\":1587:1590   */\n      dup3\n        /* \"#utility.yul\":1580:1617   */\n      mstore\n        /* \"#utility.yul\":1505:1623   */\n      pop\n      pop\n      jump\t// out\n        /* \"#utility.yul\":1629:1851   */\n    tag_23:\n        /* \"#utility.yul\":1722:1726   */\n      0x00\n        /* \"#utility.yul\":1760:1762   */\n      0x20\n        /* \"#utility.yul\":1749:1758   */\n      dup3\n        /* \"#utility.yul\":1745:1763   */\n      add\n        /* \"#utility.yul\":1737:1763   */\n      swap1\n      pop\n        /* \"#utility.yul\":1773:1844   */\n      tag_206\n        /* \"#utility.yul\":1841:1842   */\n      0x00\n        /* \"#utility.yul\":1830:1839   */\n      dup4\n        /* \"#utility.yul\":1826:1843   */\n      add\n        /* \"#utility.yul\":1817:1823   */\n      dup5\n        /* \"#utility.yul\":1773:1844   */\n      tag_148\n      jump\t// in\n    tag_206:\n        /* \"#utility.yul\":1629:1851   */\n      swap3\n      swap2\n      pop\n      pop\n      jump\t// out\n        /* \"#utility.yul\":1857:1983   */\n    tag_149:\n        /* \"#utility.yul\":1894:1901   */\n      0x00\n        /* \"#utility.yul\":1934:1976   */\n      0xffffffffffffffffffffffffffffffffffffffff\n        /* \"#utility.yul\":1927:1932   */\n      dup3\n        /* \"#utility.yul\":1923:1977   */\n      and\n        /* \"#utility.yul\":1912:1977   */\n      swap1\n      pop\n        /* \"#utility.yul\":1857:1983   */\n      swap2\n      swap1\n      pop\n      jump\t// out\n        /* \"#utility.yul\":1989:2049   */\n    tag_150:\n        /* \"#utility.yul\":2017:2020   */\n      0x00\n        /* \"#utility.yul\":2038:2043   */\n      dup2\n        /* \"#utility.yul\":2031:2043   */\n      swap1\n      pop\n        /* \"#utility.yul\":1989:2049   */\n      swap2\n      swap1\n      pop\n      jump\t// out\n        /* \"#utility.yul\":2055:2197   */\n    tag_151:\n        /* \"#utility.yul\":2105:2114   */\n      0x00\n        /* \"#utility.yul\":2138:2191   */\n      tag_210\n        /* \"#utility.yul\":2156:2190   */\n      tag_211\n        /* \"#utility.yul\":2165:2189   */\n      tag_212\n        /* \"#utility.yul\":2183:2188   */\n      dup5\n        /* \"#utility.yul\":2165:2189   */\n      tag_149\n      jump\t// in\n    tag_212:\n        /* \"#utility.yul\":2156:2190   */\n      tag_150\n      jump\t// in\n    tag_211:\n        /* \"#utility.yul\":2138:2191   */\n      tag_149\n      jump\t// in\n    tag_210:\n        /* \"#utility.yul\":2125:2191   */\n      swap1\n      pop\n        /* \"#utility.yul\":2055:2197   */\n      swap2\n      swap1\n      pop\n      jump\t// out\n        /* \"#utility.yul\":2203:2329   */\n    tag_152:\n        /* \"#utility.yul\":2253:2262   */\n      0x00\n        /* \"#utility.yul\":2286:2323   */\n      tag_214\n        /* \"#utility.yul\":2317:2322   */\n      dup3\n        /* \"#utility.yul\":2286:2323   */\n      tag_151\n      jump\t// in\n    tag_214:\n        /* \"#utility.yul\":2273:2323   */\n      swap1\n      pop\n        /* \"#utility.yul\":2203:2329   */\n      swap2\n      swap1\n      pop\n      jump\t// out\n        /* \"#utility.yul\":2335:2479   */\n    tag_153:\n        /* \"#utility.yul\":2403:2412   */\n      0x00\n        /* \"#utility.yul\":2436:2473   */\n      tag_216\n        /* \"#utility.yul\":2467:2472   */\n      dup3\n        /* \"#utility.yul\":2436:2473   */\n      tag_152\n      jump\t// in\n    tag_216:\n        /* \"#utility.yul\":2423:2473   */\n      swap1\n      pop\n        /* \"#utility.yul\":2335:2479   */\n      swap2\n      swap1\n      pop\n      jump\t// out\n        /* \"#utility.yul\":2485:2652   */\n    tag_154:\n        /* \"#utility.yul\":2590:2645   */\n      tag_218\n        /* \"#utility.yul\":2639:2644   */\n      dup2\n        /* \"#utility.yul\":2590:2645   */\n      tag_153\n      jump\t// in\n    tag_218:\n        /* \"#utility.yul\":2585:2588   */\n      dup3\n        /* \"#utility.yul\":2578:2646   */\n      mstore\n        /* \"#utility.yul\":2485:2652   */\n      pop\n      pop\n      jump\t// out\n        /* \"#utility.yul\":2658:2916   */\n    tag_28:\n        /* \"#utility.yul\":2769:2773   */\n      0x00\n        /* \"#utility.yul\":2807:2809   */\n      0x20\n        /* \"#utility.yul\":2796:2805   */\n      dup3\n        /* \"#utility.yul\":2792:2810   */\n      add\n        /* \"#utility.yul\":2784:2810   */\n      swap1\n      pop\n        /* \"#utility.yul\":2820:2909   */\n      tag_220\n        /* \"#utility.yul\":2906:2907   */\n      0x00\n        /* \"#utility.yul\":2895:2904   */\n      dup4\n        /* \"#utility.yul\":2891:2908   */\n      add\n        /* \"#utility.yul\":2882:2888   */\n      dup5\n        /* \"#utility.yul\":2820:2909   */\n      tag_154\n      jump\t// in\n    tag_220:\n        /* \"#utility.yul\":2658:2916   */\n      swap3\n      swap2\n      pop\n      pop\n      jump\t// out\n        /* \"#utility.yul\":2922:3067   */\n    tag_155:\n        /* \"#utility.yul\":2991:3000   */\n      0x00\n        /* \"#utility.yul\":3024:3061   */\n      tag_222\n        /* \"#utility.yul\":3055:3060   */\n      dup3\n        /* \"#utility.yul\":3024:3061   */\n      tag_152\n      jump\t// in\n    tag_222:\n        /* \"#utility.yul\":3011:3061   */\n      swap1\n      pop\n        /* \"#utility.yul\":2922:3067   */\n      swap2\n      swap1\n      pop\n      jump\t// out\n        /* \"#utility.yul\":3073:3242   */\n    tag_156:\n        /* \"#utility.yul\":3179:3235   */\n      tag_224\n        /* \"#utility.yul\":3229:3234   */\n      dup2\n        /* \"#utility.yul\":3179:3235   */\n      tag_155\n      jump\t// in\n    tag_224:\n        /* \"#utility.yul\":3174:3177   */\n      dup3\n        /* \"#utility.yul\":3167:3236   */\n      mstore\n        /* \"#utility.yul\":3073:3242   */\n      pop\n      pop\n      jump\t// out\n        /* \"#utility.yul\":3248:3508   */\n    tag_33:\n        /* \"#utility.yul\":3360:3364   */\n      0x00\n        /* \"#utility.yul\":3398:3400   */\n      0x20\n        /* \"#utility.yul\":3387:3396   */\n      dup3\n        /* \"#utility.yul\":3383:3401   */\n      add\n        /* \"#utility.yul\":3375:3401   */\n      swap1\n      pop\n        /* \"#utility.yul\":3411:3501   */\n      tag_226\n        /* \"#utility.yul\":3498:3499   */\n      0x00\n        /* \"#utility.yul\":3487:3496   */\n      dup4\n        /* \"#utility.yul\":3483:3500   */\n      add\n        /* \"#utility.yul\":3474:3480   */\n      dup5\n        /* \"#utility.yul\":3411:3501   */\n      tag_156\n      jump\t// in\n    tag_226:\n        /* \"#utility.yul\":3248:3508   */\n      swap3\n      swap2\n      pop\n      pop\n      jump\t// out\n        /* \"#utility.yul\":3514:3599   */\n    tag_157:\n        /* \"#utility.yul\":3559:3566   */\n      0x00\n        /* \"#utility.yul\":3588:3593   */\n      dup2\n        /* \"#utility.yul\":3577:3593   */\n      swap1\n      pop\n        /* \"#utility.yul\":3514:3599   */\n      swap2\n      swap1\n      pop\n      jump\t// out\n        /* \"#utility.yul\":3605:3697   */\n    tag_158:\n        /* \"#utility.yul\":3641:3648   */\n      0x00\n        /* \"#utility.yul\":3685:3690   */\n      dup2\n        /* \"#utility.yul\":3681:3683   */\n      0x0f\n        /* \"#utility.yul\":3670:3691   */\n      signextend\n        /* \"#utility.yul\":3659:3691   */\n      swap1\n      pop\n        /* \"#utility.yul\":3605:3697   */\n      swap2\n      swap1\n      pop\n      jump\t// out\n        /* \"#utility.yul\":3703:3859   */\n    tag_159:\n        /* \"#utility.yul\":3760:3769   */\n      0x00\n        /* \"#utility.yul\":3793:3853   */\n      tag_230\n        /* \"#utility.yul\":3810:3852   */\n      tag_231\n        /* \"#utility.yul\":3819:3851   */\n      tag_232\n        /* \"#utility.yul\":3845:3850   */\n      dup5\n        /* \"#utility.yul\":3819:3851   */\n      tag_157\n      jump\t// in\n    tag_232:\n        /* \"#utility.yul\":3810:3852   */\n      tag_150\n      jump\t// in\n    tag_231:\n        /* \"#utility.yul\":3793:3853   */\n      tag_158\n      jump\t// in\n    tag_230:\n        /* \"#utility.yul\":3780:3853   */\n      swap1\n      pop\n        /* \"#utility.yul\":3703:3859   */\n      swap2\n      swap1\n      pop\n      jump\t// out\n        /* \"#utility.yul\":3865:4010   */\n    tag_160:\n        /* \"#utility.yul\":3959:4003   */\n      tag_234\n        /* \"#utility.yul\":3997:4002   */\n      dup2\n        /* \"#utility.yul\":3959:4003   */\n      tag_159\n      jump\t// in\n    tag_234:\n        /* \"#utility.yul\":3954:3957   */\n      dup3\n        /* \"#utility.yul\":3947:4004   */\n      mstore\n        /* \"#utility.yul\":3865:4010   */\n      pop\n      pop\n      jump\t// out\n        /* \"#utility.yul\":4016:4101   */\n    tag_161:\n        /* \"#utility.yul\":4061:4068   */\n      0x00\n        /* \"#utility.yul\":4090:4095   */\n      dup2\n        /* \"#utility.yul\":4079:4095   */\n      swap1\n      pop\n        /* \"#utility.yul\":4016:4101   */\n      swap2\n      swap1\n      pop\n      jump\t// out\n        /* \"#utility.yul\":4107:4263   */\n    tag_162:\n        /* \"#utility.yul\":4164:4173   */\n      0x00\n        /* \"#utility.yul\":4197:4257   */\n      tag_237\n        /* \"#utility.yul\":4214:4256   */\n      tag_238\n        /* \"#utility.yul\":4223:4255   */\n      tag_239\n        /* \"#utility.yul\":4249:4254   */\n      dup5\n        /* \"#utility.yul\":4223:4255   */\n      tag_161\n      jump\t// in\n    tag_239:\n        /* \"#utility.yul\":4214:4256   */\n      tag_150\n      jump\t// in\n    tag_238:\n        /* \"#utility.yul\":4197:4257   */\n      tag_158\n      jump\t// in\n    tag_237:\n        /* \"#utility.yul\":4184:4257   */\n      swap1\n      pop\n        /* \"#utility.yul\":4107:4263   */\n      swap2\n      swap1\n      pop\n      jump\t// out\n        /* \"#utility.yul\":4269:4414   */\n    tag_163:\n        /* \"#utility.yul\":4363:4407   */\n      tag_241\n        /* \"#utility.yul\":4401:4406   */\n      dup2\n        /* \"#utility.yul\":4363:4407   */\n      tag_162\n      jump\t// in\n    tag_241:\n        /* \"#utility.yul\":4358:4361   */\n      dup3\n        /* \"#utility.yul\":4351:4408   */\n      mstore\n        /* \"#utility.yul\":4269:4414   */\n      pop\n      pop\n      jump\t// out\n        /* \"#utility.yul\":4420:5001   */\n    tag_56:\n        /* \"#utility.yul\":4611:4615   */\n      0x00\n        /* \"#utility.yul\":4649:4652   */\n      0x80\n        /* \"#utility.yul\":4638:4647   */\n      dup3\n        /* \"#utility.yul\":4634:4653   */\n      add\n        /* \"#utility.yul\":4626:4653   */\n      swap1\n      pop\n        /* \"#utility.yul\":4663:4741   */\n      tag_243\n        /* \"#utility.yul\":4738:4739   */\n      0x00\n        /* \"#utility.yul\":4727:4736   */\n      dup4\n        /* \"#utility.yul\":4723:4740   */\n      add\n        /* \"#utility.yul\":4714:4720   */\n      dup8\n        /* \"#utility.yul\":4663:4741   */\n      tag_160\n      jump\t// in\n    tag_243:\n        /* \"#utility.yul\":4751:4830   */\n      tag_244\n        /* \"#utility.yul\":4826:4828   */\n      0x20\n        /* \"#utility.yul\":4815:4824   */\n      dup4\n        /* \"#utility.yul\":4811:4829   */\n      add\n        /* \"#utility.yul\":4802:4808   */\n      dup7\n        /* \"#utility.yul\":4751:4830   */\n      tag_163\n      jump\t// in\n    tag_244:\n        /* \"#utility.yul\":4840:4912   */\n      tag_245\n        /* \"#utility.yul\":4908:4910   */\n      0x40\n        /* \"#utility.yul\":4897:4906   */\n      dup4\n        /* \"#utility.yul\":4893:4911   */\n      add\n        /* \"#utility.yul\":4884:4890   */\n      dup6\n        /* \"#utility.yul\":4840:4912   */\n      tag_148\n      jump\t// in\n    tag_245:\n        /* \"#utility.yul\":4922:4994   */\n      tag_246\n        /* \"#utility.yul\":4990:4992   */\n      0x60\n        /* \"#utility.yul\":4979:4988   */\n      dup4\n        /* \"#utility.yul\":4975:4993   */\n      add\n        /* \"#utility.yul\":4966:4972   */\n      dup5\n        /* \"#utility.yul\":4922:4994   */\n      tag_148\n      jump\t// in\n    tag_246:\n        /* \"#utility.yul\":4420:5001   */\n      swap6\n      swap5\n      pop\n      pop\n      pop\n      pop\n      pop\n      jump\t// out\n        /* \"#utility.yul\":5007:5150   */\n    tag_164:\n        /* \"#utility.yul\":5064:5069   */\n      0x00\n        /* \"#utility.yul\":5095:5101   */\n      dup2\n        /* \"#utility.yul\":5089:5102   */\n      mload\n        /* \"#utility.yul\":5080:5102   */\n      swap1\n      pop\n        /* \"#utility.yul\":5111:5144   */\n      tag_248\n        /* \"#utility.yul\":5138:5143   */\n      dup2\n        /* \"#utility.yul\":5111:5144   */\n      tag_146\n      jump\t// in\n    tag_248:\n        /* \"#utility.yul\":5007:5150   */\n      swap3\n      swap2\n      pop\n      pop\n      jump\t// out\n        /* \"#utility.yul\":5156:5507   */\n    tag_60:\n        /* \"#utility.yul\":5226:5232   */\n      0x00\n        /* \"#utility.yul\":5275:5277   */\n      0x20\n        /* \"#utility.yul\":5263:5272   */\n      dup3\n        /* \"#utility.yul\":5254:5261   */\n      dup5\n        /* \"#utility.yul\":5250:5273   */\n      sub\n        /* \"#utility.yul\":5246:5278   */\n      slt\n        /* \"#utility.yul\":5243:5362   */\n      iszero\n      tag_250\n      jumpi\n        /* \"#utility.yul\":5281:5360   */\n      tag_251\n      tag_143\n      jump\t// in\n    tag_251:\n        /* \"#utility.yul\":5243:5362   */\n    tag_250:\n        /* \"#utility.yul\":5401:5402   */\n      0x00\n        /* \"#utility.yul\":5426:5490   */\n      tag_252\n        /* \"#utility.yul\":5482:5489   */\n      dup5\n        /* \"#utility.yul\":5473:5479   */\n      dup3\n        /* \"#utility.yul\":5462:5471   */\n      dup6\n        /* \"#utility.yul\":5458:5480   */\n      add\n        /* \"#utility.yul\":5426:5490   */\n      tag_164\n      jump\t// in\n    tag_252:\n        /* \"#utility.yul\":5416:5490   */\n      swap2\n      pop\n        /* \"#utility.yul\":5372:5500   */\n      pop\n        /* \"#utility.yul\":5156:5507   */\n      swap3\n      swap2\n      pop\n      pop\n      jump\t// out\n        /* \"#utility.yul\":5513:5983   */\n    tag_63:\n        /* \"#utility.yul\":5676:5680   */\n      0x00\n        /* \"#utility.yul\":5714:5716   */\n      0x60\n        /* \"#utility.yul\":5703:5712   */\n      dup3\n        /* \"#utility.yul\":5699:5717   */\n      add\n        /* \"#utility.yul\":5691:5717   */\n      swap1\n      pop\n        /* \"#utility.yul\":5727:5805   */\n      tag_254\n        /* \"#utility.yul\":5802:5803   */\n      0x00\n        /* \"#utility.yul\":5791:5800   */\n      dup4\n        /* \"#utility.yul\":5787:5804   */\n      add\n        /* \"#utility.yul\":5778:5784   */\n      dup7\n        /* \"#utility.yul\":5727:5805   */\n      tag_160\n      jump\t// in\n    tag_254:\n        /* \"#utility.yul\":5815:5894   */\n      tag_255\n        /* \"#utility.yul\":5890:5892   */\n      0x20\n        /* \"#utility.yul\":5879:5888   */\n      dup4\n        /* \"#utility.yul\":5875:5893   */\n      add\n        /* \"#utility.yul\":5866:5872   */\n      dup6\n        /* \"#utility.yul\":5815:5894   */\n      tag_163\n      jump\t// in\n    tag_255:\n        /* \"#utility.yul\":5904:5976   */\n      tag_256\n        /* \"#utility.yul\":5972:5974   */\n      0x40\n        /* \"#utility.yul\":5961:5970   */\n      dup4\n        /* \"#utility.yul\":5957:5975   */\n      add\n        /* \"#utility.yul\":5948:5954   */\n      dup5\n        /* \"#utility.yul\":5904:5976   */\n      tag_148\n      jump\t// in\n    tag_256:\n        /* \"#utility.yul\":5513:5983   */\n      swap5\n      swap4\n      pop\n      pop\n      pop\n      pop\n      jump\t// out\n        /* \"#utility.yul\":5989:6085   */\n    tag_165:\n        /* \"#utility.yul\":6026:6033   */\n      0x00\n        /* \"#utility.yul\":6055:6079   */\n      tag_258\n        /* \"#utility.yul\":6073:6078   */\n      dup3\n        /* \"#utility.yul\":6055:6079   */\n      tag_149\n      jump\t// in\n    tag_258:\n        /* \"#utility.yul\":6044:6079   */\n      swap1\n      pop\n        /* \"#utility.yul\":5989:6085   */\n      swap2\n      swap1\n      pop\n      jump\t// out\n        /* \"#utility.yul\":6091:6209   */\n    tag_166:\n        /* \"#utility.yul\":6178:6202   */\n      tag_260\n        /* \"#utility.yul\":6196:6201   */\n      dup2\n        /* \"#utility.yul\":6178:6202   */\n      tag_165\n      jump\t// in\n    tag_260:\n        /* \"#utility.yul\":6173:6176   */\n      dup3\n        /* \"#utility.yul\":6166:6203   */\n      mstore\n        /* \"#utility.yul\":6091:6209   */\n      pop\n      pop\n      jump\t// out\n        /* \"#utility.yul\":6215:6547   */\n    tag_69:\n        /* \"#utility.yul\":6336:6340   */\n      0x00\n        /* \"#utility.yul\":6374:6376   */\n      0x40\n        /* \"#utility.yul\":6363:6372   */\n      dup3\n        /* \"#utility.yul\":6359:6377   */\n      add\n        /* \"#utility.yul\":6351:6377   */\n      swap1\n      pop\n        /* \"#utility.yul\":6387:6458   */\n      tag_262\n        /* \"#utility.yul\":6455:6456   */\n      0x00\n        /* \"#utility.yul\":6444:6453   */\n      dup4\n        /* \"#utility.yul\":6440:6457   */\n      add\n        /* \"#utility.yul\":6431:6437   */\n      dup6\n        /* \"#utility.yul\":6387:6458   */\n      tag_166\n      jump\t// in\n    tag_262:\n        /* \"#utility.yul\":6468:6540   */\n      tag_263\n        /* \"#utility.yul\":6536:6538   */\n      0x20\n        /* \"#utility.yul\":6525:6534   */\n      dup4\n        /* \"#utility.yul\":6521:6539   */\n      add\n        /* \"#utility.yul\":6512:6518   */\n      dup5\n        /* \"#utility.yul\":6468:6540   */\n      tag_148\n      jump\t// in\n    tag_263:\n        /* \"#utility.yul\":6215:6547   */\n      swap4\n      swap3\n      pop\n      pop\n      pop\n      jump\t// out\n        /* \"#utility.yul\":6553:6643   */\n    tag_167:\n        /* \"#utility.yul\":6587:6594   */\n      0x00\n        /* \"#utility.yul\":6630:6635   */\n      dup2\n        /* \"#utility.yul\":6623:6636   */\n      iszero\n        /* \"#utility.yul\":6616:6637   */\n      iszero\n        /* \"#utility.yul\":6605:6637   */\n      swap1\n      pop\n        /* \"#utility.yul\":6553:6643   */\n      swap2\n      swap1\n      pop\n      jump\t// out\n        /* \"#utility.yul\":6649:6765   */\n    tag_168:\n        /* \"#utility.yul\":6719:6740   */\n      tag_266\n        /* \"#utility.yul\":6734:6739   */\n      dup2\n        /* \"#utility.yul\":6719:6740   */\n      tag_167\n      jump\t// in\n    tag_266:\n        /* \"#utility.yul\":6712:6717   */\n      dup2\n        /* \"#utility.yul\":6709:6741   */\n      eq\n        /* \"#utility.yul\":6699:6759   */\n      tag_267\n      jumpi\n        /* \"#utility.yul\":6755:6756   */\n      0x00\n        /* \"#utility.yul\":6752:6753   */\n      dup1\n        /* \"#utility.yul\":6745:6757   */\n      revert\n        /* \"#utility.yul\":6699:6759   */\n    tag_267:\n        /* \"#utility.yul\":6649:6765   */\n      pop\n      jump\t// out\n        /* \"#utility.yul\":6771:6908   */\n    tag_169:\n        /* \"#utility.yul\":6825:6830   */\n      0x00\n        /* \"#utility.yul\":6856:6862   */\n      dup2\n        /* \"#utility.yul\":6850:6863   */\n      mload\n        /* \"#utility.yul\":6841:6863   */\n      swap1\n      pop\n        /* \"#utility.yul\":6872:6902   */\n      tag_269\n        /* \"#utility.yul\":6896:6901   */\n      dup2\n        /* \"#utility.yul\":6872:6902   */\n      tag_168\n      jump\t// in\n    tag_269:\n        /* \"#utility.yul\":6771:6908   */\n      swap3\n      swap2\n      pop\n      pop\n      jump\t// out\n        /* \"#utility.yul\":6914:7259   */\n    tag_73:\n        /* \"#utility.yul\":6981:6987   */\n      0x00\n        /* \"#utility.yul\":7030:7032   */\n      0x20\n        /* \"#utility.yul\":7018:7027   */\n      dup3\n        /* \"#utility.yul\":7009:7016   */\n      dup5\n        /* \"#utility.yul\":7005:7028   */\n      sub\n        /* \"#utility.yul\":7001:7033   */\n      slt\n        /* \"#utility.yul\":6998:7117   */\n      iszero\n      tag_271\n      jumpi\n        /* \"#utility.yul\":7036:7115   */\n      tag_272\n      tag_143\n      jump\t// in\n    tag_272:\n        /* \"#utility.yul\":6998:7117   */\n    tag_271:\n        /* \"#utility.yul\":7156:7157   */\n      0x00\n        /* \"#utility.yul\":7181:7242   */\n      tag_273\n        /* \"#utility.yul\":7234:7241   */\n      dup5\n        /* \"#utility.yul\":7225:7231   */\n      dup3\n        /* \"#utility.yul\":7214:7223   */\n      dup6\n        /* \"#utility.yul\":7210:7232   */\n      add\n        /* \"#utility.yul\":7181:7242   */\n      tag_169\n      jump\t// in\n    tag_273:\n        /* \"#utility.yul\":7171:7242   */\n      swap2\n      pop\n        /* \"#utility.yul\":7127:7252   */\n      pop\n        /* \"#utility.yul\":6914:7259   */\n      swap3\n      swap2\n      pop\n      pop\n      jump\t// out\n        /* \"#utility.yul\":7265:7423   */\n    tag_170:\n        /* \"#utility.yul\":7323:7332   */\n      0x00\n        /* \"#utility.yul\":7356:7417   */\n      tag_275\n        /* \"#utility.yul\":7374:7416   */\n      tag_276\n        /* \"#utility.yul\":7383:7415   */\n      tag_277\n        /* \"#utility.yul\":7409:7414   */\n      dup5\n        /* \"#utility.yul\":7383:7415   */\n      tag_157\n      jump\t// in\n    tag_277:\n        /* \"#utility.yul\":7374:7416   */\n      tag_150\n      jump\t// in\n    tag_276:\n        /* \"#utility.yul\":7356:7417   */\n      tag_145\n      jump\t// in\n    tag_275:\n        /* \"#utility.yul\":7343:7417   */\n      swap1\n      pop\n        /* \"#utility.yul\":7265:7423   */\n      swap2\n      swap1\n      pop\n      jump\t// out\n        /* \"#utility.yul\":7429:7576   */\n    tag_171:\n        /* \"#utility.yul\":7524:7569   */\n      tag_279\n        /* \"#utility.yul\":7563:7568   */\n      dup2\n        /* \"#utility.yul\":7524:7569   */\n      tag_170\n      jump\t// in\n    tag_279:\n        /* \"#utility.yul\":7519:7522   */\n      dup3\n        /* \"#utility.yul\":7512:7570   */\n      mstore\n        /* \"#utility.yul\":7429:7576   */\n      pop\n      pop\n      jump\t// out\n        /* \"#utility.yul\":7582:8179   */\n    tag_75:\n        /* \"#utility.yul\":7781:7785   */\n      0x00\n        /* \"#utility.yul\":7819:7822   */\n      0x80\n        /* \"#utility.yul\":7808:7817   */\n      dup3\n        /* \"#utility.yul\":7804:7823   */\n      add\n        /* \"#utility.yul\":7796:7823   */\n      swap1\n      pop\n        /* \"#utility.yul\":7833:7911   */\n      tag_281\n        /* \"#utility.yul\":7908:7909   */\n      0x00\n        /* \"#utility.yul\":7897:7906   */\n      dup4\n        /* \"#utility.yul\":7893:7910   */\n      add\n        /* \"#utility.yul\":7884:7890   */\n      dup8\n        /* \"#utility.yul\":7833:7911   */\n      tag_163\n      jump\t// in\n    tag_281:\n        /* \"#utility.yul\":7921:8000   */\n      tag_282\n        /* \"#utility.yul\":7996:7998   */\n      0x20\n        /* \"#utility.yul\":7985:7994   */\n      dup4\n        /* \"#utility.yul\":7981:7999   */\n      add\n        /* \"#utility.yul\":7972:7978   */\n      dup7\n        /* \"#utility.yul\":7921:8000   */\n      tag_160\n      jump\t// in\n    tag_282:\n        /* \"#utility.yul\":8010:8082   */\n      tag_283\n        /* \"#utility.yul\":8078:8080   */\n      0x40\n        /* \"#utility.yul\":8067:8076   */\n      dup4\n        /* \"#utility.yul\":8063:8081   */\n      add\n        /* \"#utility.yul\":8054:8060   */\n      dup6\n        /* \"#utility.yul\":8010:8082   */\n      tag_148\n      jump\t// in\n    tag_283:\n        /* \"#utility.yul\":8092:8172   */\n      tag_284\n        /* \"#utility.yul\":8168:8170   */\n      0x60\n        /* \"#utility.yul\":8157:8166   */\n      dup4\n        /* \"#utility.yul\":8153:8171   */\n      add\n        /* \"#utility.yul\":8144:8150   */\n      dup5\n        /* \"#utility.yul\":8092:8172   */\n      tag_171\n      jump\t// in\n    tag_284:\n        /* \"#utility.yul\":7582:8179   */\n      swap6\n      swap5\n      pop\n      pop\n      pop\n      pop\n      pop\n      jump\t// out\n        /* \"#utility.yul\":8185:8293   */\n    tag_172:\n        /* \"#utility.yul\":8262:8286   */\n      tag_286\n        /* \"#utility.yul\":8280:8285   */\n      dup2\n        /* \"#utility.yul\":8262:8286   */\n      tag_165\n      jump\t// in\n    tag_286:\n        /* \"#utility.yul\":8257:8260   */\n      dup3\n        /* \"#utility.yul\":8250:8287   */\n      mstore\n        /* \"#utility.yul\":8185:8293   */\n      pop\n      pop\n      jump\t// out\n        /* \"#utility.yul\":8299:8390   */\n    tag_173:\n        /* \"#utility.yul\":8335:8342   */\n      0x00\n        /* \"#utility.yul\":8375:8383   */\n      0xffffff\n        /* \"#utility.yul\":8368:8373   */\n      dup3\n        /* \"#utility.yul\":8364:8384   */\n      and\n        /* \"#utility.yul\":8353:8384   */\n      swap1\n      pop\n        /* \"#utility.yul\":8299:8390   */\n      swap2\n      swap1\n      pop\n      jump\t// out\n        /* \"#utility.yul\":8396:8501   */\n    tag_174:\n        /* \"#utility.yul\":8471:8494   */\n      tag_289\n        /* \"#utility.yul\":8488:8493   */\n      dup2\n        /* \"#utility.yul\":8471:8494   */\n      tag_173\n      jump\t// in\n    tag_289:\n        /* \"#utility.yul\":8466:8469   */\n      dup3\n        /* \"#utility.yul\":8459:8495   */\n      mstore\n        /* \"#utility.yul\":8396:8501   */\n      pop\n      pop\n      jump\t// out\n        /* \"#utility.yul\":8507:8615   */\n    tag_175:\n        /* \"#utility.yul\":8584:8608   */\n      tag_291\n        /* \"#utility.yul\":8602:8607   */\n      dup2\n        /* \"#utility.yul\":8584:8608   */\n      tag_145\n      jump\t// in\n    tag_291:\n        /* \"#utility.yul\":8579:8582   */\n      dup3\n        /* \"#utility.yul\":8572:8609   */\n      mstore\n        /* \"#utility.yul\":8507:8615   */\n      pop\n      pop\n      jump\t// out\n        /* \"#utility.yul\":8621:8729   */\n    tag_176:\n        /* \"#utility.yul\":8698:8722   */\n      tag_293\n        /* \"#utility.yul\":8716:8721   */\n      dup2\n        /* \"#utility.yul\":8698:8722   */\n      tag_149\n      jump\t// in\n    tag_293:\n        /* \"#utility.yul\":8693:8696   */\n      dup3\n        /* \"#utility.yul\":8686:8723   */\n      mstore\n        /* \"#utility.yul\":8621:8729   */\n      pop\n      pop\n      jump\t// out\n        /* \"#utility.yul\":8829:10452   */\n    tag_177:\n        /* \"#utility.yul\":9004:9010   */\n      0x0100\n        /* \"#utility.yul\":8999:9002   */\n      dup3\n        /* \"#utility.yul\":8995:9011   */\n      add\n        /* \"#utility.yul\":9096:9100   */\n      0x00\n        /* \"#utility.yul\":9089:9094   */\n      dup3\n        /* \"#utility.yul\":9085:9101   */\n      add\n        /* \"#utility.yul\":9079:9102   */\n      mload\n        /* \"#utility.yul\":9115:9178   */\n      tag_295\n        /* \"#utility.yul\":9172:9176   */\n      0x00\n        /* \"#utility.yul\":9167:9170   */\n      dup6\n        /* \"#utility.yul\":9163:9177   */\n      add\n        /* \"#utility.yul\":9149:9161   */\n      dup3\n        /* \"#utility.yul\":9115:9178   */\n      tag_172\n      jump\t// in\n    tag_295:\n        /* \"#utility.yul\":9021:9188   */\n      pop\n        /* \"#utility.yul\":9274:9278   */\n      0x20\n        /* \"#utility.yul\":9267:9272   */\n      dup3\n        /* \"#utility.yul\":9263:9279   */\n      add\n        /* \"#utility.yul\":9257:9280   */\n      mload\n        /* \"#utility.yul\":9293:9356   */\n      tag_296\n        /* \"#utility.yul\":9350:9354   */\n      0x20\n        /* \"#utility.yul\":9345:9348   */\n      dup6\n        /* \"#utility.yul\":9341:9355   */\n      add\n        /* \"#utility.yul\":9327:9339   */\n      dup3\n        /* \"#utility.yul\":9293:9356   */\n      tag_172\n      jump\t// in\n    tag_296:\n        /* \"#utility.yul\":9198:9366   */\n      pop\n        /* \"#utility.yul\":9447:9451   */\n      0x40\n        /* \"#utility.yul\":9440:9445   */\n      dup3\n        /* \"#utility.yul\":9436:9452   */\n      add\n        /* \"#utility.yul\":9430:9453   */\n      mload\n        /* \"#utility.yul\":9466:9527   */\n      tag_297\n        /* \"#utility.yul\":9521:9525   */\n      0x40\n        /* \"#utility.yul\":9516:9519   */\n      dup6\n        /* \"#utility.yul\":9512:9526   */\n      add\n        /* \"#utility.yul\":9498:9510   */\n      dup3\n        /* \"#utility.yul\":9466:9527   */\n      tag_174\n      jump\t// in\n    tag_297:\n        /* \"#utility.yul\":9376:9537   */\n      pop\n        /* \"#utility.yul\":9624:9628   */\n      0x60\n        /* \"#utility.yul\":9617:9622   */\n      dup3\n        /* \"#utility.yul\":9613:9629   */\n      add\n        /* \"#utility.yul\":9607:9630   */\n      mload\n        /* \"#utility.yul\":9643:9706   */\n      tag_298\n        /* \"#utility.yul\":9700:9704   */\n      0x60\n        /* \"#utility.yul\":9695:9698   */\n      dup6\n        /* \"#utility.yul\":9691:9705   */\n      add\n        /* \"#utility.yul\":9677:9689   */\n      dup3\n        /* \"#utility.yul\":9643:9706   */\n      tag_172\n      jump\t// in\n    tag_298:\n        /* \"#utility.yul\":9547:9716   */\n      pop\n        /* \"#utility.yul\":9802:9806   */\n      0x80\n        /* \"#utility.yul\":9795:9800   */\n      dup3\n        /* \"#utility.yul\":9791:9807   */\n      add\n        /* \"#utility.yul\":9785:9808   */\n      mload\n        /* \"#utility.yul\":9821:9884   */\n      tag_299\n        /* \"#utility.yul\":9878:9882   */\n      0x80\n        /* \"#utility.yul\":9873:9876   */\n      dup6\n        /* \"#utility.yul\":9869:9883   */\n      add\n        /* \"#utility.yul\":9855:9867   */\n      dup3\n        /* \"#utility.yul\":9821:9884   */\n      tag_175\n      jump\t// in\n    tag_299:\n        /* \"#utility.yul\":9726:9894   */\n      pop\n        /* \"#utility.yul\":9980:9984   */\n      0xa0\n        /* \"#utility.yul\":9973:9978   */\n      dup3\n        /* \"#utility.yul\":9969:9985   */\n      add\n        /* \"#utility.yul\":9963:9986   */\n      mload\n        /* \"#utility.yul\":9999:10062   */\n      tag_300\n        /* \"#utility.yul\":10056:10060   */\n      0xa0\n        /* \"#utility.yul\":10051:10054   */\n      dup6\n        /* \"#utility.yul\":10047:10061   */\n      add\n        /* \"#utility.yul\":10033:10045   */\n      dup3\n        /* \"#utility.yul\":9999:10062   */\n      tag_175\n      jump\t// in\n    tag_300:\n        /* \"#utility.yul\":9904:10072   */\n      pop\n        /* \"#utility.yul\":10166:10170   */\n      0xc0\n        /* \"#utility.yul\":10159:10164   */\n      dup3\n        /* \"#utility.yul\":10155:10171   */\n      add\n        /* \"#utility.yul\":10149:10172   */\n      mload\n        /* \"#utility.yul\":10185:10248   */\n      tag_301\n        /* \"#utility.yul\":10242:10246   */\n      0xc0\n        /* \"#utility.yul\":10237:10240   */\n      dup6\n        /* \"#utility.yul\":10233:10247   */\n      add\n        /* \"#utility.yul\":10219:10231   */\n      dup3\n        /* \"#utility.yul\":10185:10248   */\n      tag_175\n      jump\t// in\n    tag_301:\n        /* \"#utility.yul\":10082:10258   */\n      pop\n        /* \"#utility.yul\":10353:10357   */\n      0xe0\n        /* \"#utility.yul\":10346:10351   */\n      dup3\n        /* \"#utility.yul\":10342:10358   */\n      add\n        /* \"#utility.yul\":10336:10359   */\n      mload\n        /* \"#utility.yul\":10372:10435   */\n      tag_302\n        /* \"#utility.yul\":10429:10433   */\n      0xe0\n        /* \"#utility.yul\":10424:10427   */\n      dup6\n        /* \"#utility.yul\":10420:10434   */\n      add\n        /* \"#utility.yul\":10406:10418   */\n      dup3\n        /* \"#utility.yul\":10372:10435   */\n      tag_176\n      jump\t// in\n    tag_302:\n        /* \"#utility.yul\":10268:10445   */\n      pop\n        /* \"#utility.yul\":8973:10452   */\n      pop\n        /* \"#utility.yul\":8829:10452   */\n      pop\n      pop\n      jump\t// out\n        /* \"#utility.yul\":10458:10837   */\n    tag_81:\n        /* \"#utility.yul\":10629:10633   */\n      0x00\n        /* \"#utility.yul\":10667:10670   */\n      0x0100\n        /* \"#utility.yul\":10656:10665   */\n      dup3\n        /* \"#utility.yul\":10652:10671   */\n      add\n        /* \"#utility.yul\":10644:10671   */\n      swap1\n      pop\n        /* \"#utility.yul\":10681:10830   */\n      tag_304\n        /* \"#utility.yul\":10827:10828   */\n      0x00\n        /* \"#utility.yul\":10816:10825   */\n      dup4\n        /* \"#utility.yul\":10812:10829   */\n      add\n        /* \"#utility.yul\":10803:10809   */\n      dup5\n        /* \"#utility.yul\":10681:10830   */\n      tag_177\n      jump\t// in\n    tag_304:\n        /* \"#utility.yul\":10458:10837   */\n      swap3\n      swap2\n      pop\n      pop\n      jump\t// out\n        /* \"#utility.yul\":10843:11285   */\n    tag_87:\n        /* \"#utility.yul\":10992:10996   */\n      0x00\n        /* \"#utility.yul\":11030:11032   */\n      0x60\n        /* \"#utility.yul\":11019:11028   */\n      dup3\n        /* \"#utility.yul\":11015:11033   */\n      add\n        /* \"#utility.yul\":11007:11033   */\n      swap1\n      pop\n        /* \"#utility.yul\":11043:11114   */\n      tag_306\n        /* \"#utility.yul\":11111:11112   */\n      0x00\n        /* \"#utility.yul\":11100:11109   */\n      dup4\n        /* \"#utility.yul\":11096:11113   */\n      add\n        /* \"#utility.yul\":11087:11093   */\n      dup7\n        /* \"#utility.yul\":11043:11114   */\n      tag_166\n      jump\t// in\n    tag_306:\n        /* \"#utility.yul\":11124:11196   */\n      tag_307\n        /* \"#utility.yul\":11192:11194   */\n      0x20\n        /* \"#utility.yul\":11181:11190   */\n      dup4\n        /* \"#utility.yul\":11177:11195   */\n      add\n        /* \"#utility.yul\":11168:11174   */\n      dup6\n        /* \"#utility.yul\":11124:11196   */\n      tag_166\n      jump\t// in\n    tag_307:\n        /* \"#utility.yul\":11206:11278   */\n      tag_308\n        /* \"#utility.yul\":11274:11276   */\n      0x40\n        /* \"#utility.yul\":11263:11272   */\n      dup4\n        /* \"#utility.yul\":11259:11277   */\n      add\n        /* \"#utility.yul\":11250:11256   */\n      dup5\n        /* \"#utility.yul\":11206:11278   */\n      tag_148\n      jump\t// in\n    tag_308:\n        /* \"#utility.yul\":10843:11285   */\n      swap5\n      swap4\n      pop\n      pop\n      pop\n      pop\n      jump\t// out\n        /* \"#utility.yul\":11387:13014   */\n    tag_178:\n        /* \"#utility.yul\":11564:11570   */\n      0x0100\n        /* \"#utility.yul\":11559:11562   */\n      dup3\n        /* \"#utility.yul\":11555:11571   */\n      add\n        /* \"#utility.yul\":11656:11660   */\n      0x00\n        /* \"#utility.yul\":11649:11654   */\n      dup3\n        /* \"#utility.yul\":11645:11661   */\n      add\n        /* \"#utility.yul\":11639:11662   */\n      mload\n        /* \"#utility.yul\":11675:11738   */\n      tag_310\n        /* \"#utility.yul\":11732:11736   */\n      0x00\n        /* \"#utility.yul\":11727:11730   */\n      dup6\n        /* \"#utility.yul\":11723:11737   */\n      add\n        /* \"#utility.yul\":11709:11721   */\n      dup3\n        /* \"#utility.yul\":11675:11738   */\n      tag_172\n      jump\t// in\n    tag_310:\n        /* \"#utility.yul\":11581:11748   */\n      pop\n        /* \"#utility.yul\":11834:11838   */\n      0x20\n        /* \"#utility.yul\":11827:11832   */\n      dup3\n        /* \"#utility.yul\":11823:11839   */\n      add\n        /* \"#utility.yul\":11817:11840   */\n      mload\n        /* \"#utility.yul\":11853:11916   */\n      tag_311\n        /* \"#utility.yul\":11910:11914   */\n      0x20\n        /* \"#utility.yul\":11905:11908   */\n      dup6\n        /* \"#utility.yul\":11901:11915   */\n      add\n        /* \"#utility.yul\":11887:11899   */\n      dup3\n        /* \"#utility.yul\":11853:11916   */\n      tag_172\n      jump\t// in\n    tag_311:\n        /* \"#utility.yul\":11758:11926   */\n      pop\n        /* \"#utility.yul\":12007:12011   */\n      0x40\n        /* \"#utility.yul\":12000:12005   */\n      dup3\n        /* \"#utility.yul\":11996:12012   */\n      add\n        /* \"#utility.yul\":11990:12013   */\n      mload\n        /* \"#utility.yul\":12026:12089   */\n      tag_312\n        /* \"#utility.yul\":12083:12087   */\n      0x40\n        /* \"#utility.yul\":12078:12081   */\n      dup6\n        /* \"#utility.yul\":12074:12088   */\n      add\n        /* \"#utility.yul\":12060:12072   */\n      dup3\n        /* \"#utility.yul\":12026:12089   */\n      tag_175\n      jump\t// in\n    tag_312:\n        /* \"#utility.yul\":11936:12099   */\n      pop\n        /* \"#utility.yul\":12185:12189   */\n      0x60\n        /* \"#utility.yul\":12178:12183   */\n      dup3\n        /* \"#utility.yul\":12174:12190   */\n      add\n        /* \"#utility.yul\":12168:12191   */\n      mload\n        /* \"#utility.yul\":12204:12267   */\n      tag_313\n        /* \"#utility.yul\":12261:12265   */\n      0x60\n        /* \"#utility.yul\":12256:12259   */\n      dup6\n        /* \"#utility.yul\":12252:12266   */\n      add\n        /* \"#utility.yul\":12238:12250   */\n      dup3\n        /* \"#utility.yul\":12204:12267   */\n      tag_175\n      jump\t// in\n    tag_313:\n        /* \"#utility.yul\":12109:12277   */\n      pop\n        /* \"#utility.yul\":12364:12368   */\n      0x80\n        /* \"#utility.yul\":12357:12362   */\n      dup3\n        /* \"#utility.yul\":12353:12369   */\n      add\n        /* \"#utility.yul\":12347:12370   */\n      mload\n        /* \"#utility.yul\":12383:12446   */\n      tag_314\n        /* \"#utility.yul\":12440:12444   */\n      0x80\n        /* \"#utility.yul\":12435:12438   */\n      dup6\n        /* \"#utility.yul\":12431:12445   */\n      add\n        /* \"#utility.yul\":12417:12429   */\n      dup3\n        /* \"#utility.yul\":12383:12446   */\n      tag_172\n      jump\t// in\n    tag_314:\n        /* \"#utility.yul\":12287:12456   */\n      pop\n        /* \"#utility.yul\":12543:12547   */\n      0xa0\n        /* \"#utility.yul\":12536:12541   */\n      dup3\n        /* \"#utility.yul\":12532:12548   */\n      add\n        /* \"#utility.yul\":12526:12549   */\n      mload\n        /* \"#utility.yul\":12562:12625   */\n      tag_315\n        /* \"#utility.yul\":12619:12623   */\n      0xa0\n        /* \"#utility.yul\":12614:12617   */\n      dup6\n        /* \"#utility.yul\":12610:12624   */\n      add\n        /* \"#utility.yul\":12596:12608   */\n      dup3\n        /* \"#utility.yul\":12562:12625   */\n      tag_175\n      jump\t// in\n    tag_315:\n        /* \"#utility.yul\":12466:12635   */\n      pop\n        /* \"#utility.yul\":12728:12732   */\n      0xc0\n        /* \"#utility.yul\":12721:12726   */\n      dup3\n        /* \"#utility.yul\":12717:12733   */\n      add\n        /* \"#utility.yul\":12711:12734   */\n      mload\n        /* \"#utility.yul\":12747:12810   */\n      tag_316\n        /* \"#utility.yul\":12804:12808   */\n      0xc0\n        /* \"#utility.yul\":12799:12802   */\n      dup6\n        /* \"#utility.yul\":12795:12809   */\n      add\n        /* \"#utility.yul\":12781:12793   */\n      dup3\n        /* \"#utility.yul\":12747:12810   */\n      tag_175\n      jump\t// in\n    tag_316:\n        /* \"#utility.yul\":12645:12820   */\n      pop\n        /* \"#utility.yul\":12915:12919   */\n      0xe0\n        /* \"#utility.yul\":12908:12913   */\n      dup3\n        /* \"#utility.yul\":12904:12920   */\n      add\n        /* \"#utility.yul\":12898:12921   */\n      mload\n        /* \"#utility.yul\":12934:12997   */\n      tag_317\n        /* \"#utility.yul\":12991:12995   */\n      0xe0\n        /* \"#utility.yul\":12986:12989   */\n      dup6\n        /* \"#utility.yul\":12982:12996   */\n      add\n        /* \"#utility.yul\":12968:12980   */\n      dup3\n        /* \"#utility.yul\":12934:12997   */\n      tag_176\n      jump\t// in\n    tag_317:\n        /* \"#utility.yul\":12830:13007   */\n      pop\n        /* \"#utility.yul\":11533:13014   */\n      pop\n        /* \"#utility.yul\":11387:13014   */\n      pop\n      pop\n      jump\t// out\n        /* \"#utility.yul\":13020:13403   */\n    tag_96:\n        /* \"#utility.yul\":13193:13197   */\n      0x00\n        /* \"#utility.yul\":13231:13234   */\n      0x0100\n        /* \"#utility.yul\":13220:13229   */\n      dup3\n        /* \"#utility.yul\":13216:13235   */\n      add\n        /* \"#utility.yul\":13208:13235   */\n      swap1\n      pop\n        /* \"#utility.yul\":13245:13396   */\n      tag_319\n        /* \"#utility.yul\":13393:13394   */\n      0x00\n        /* \"#utility.yul\":13382:13391   */\n      dup4\n        /* \"#utility.yul\":13378:13395   */\n      add\n        /* \"#utility.yul\":13369:13375   */\n      dup5\n        /* \"#utility.yul\":13245:13396   */\n      tag_178\n      jump\t// in\n    tag_319:\n        /* \"#utility.yul\":13020:13403   */\n      swap3\n      swap2\n      pop\n      pop\n      jump\t// out\n        /* \"#utility.yul\":13409:13741   */\n    tag_102:\n        /* \"#utility.yul\":13530:13534   */\n      0x00\n        /* \"#utility.yul\":13568:13570   */\n      0x40\n        /* \"#utility.yul\":13557:13566   */\n      dup3\n        /* \"#utility.yul\":13553:13571   */\n      add\n        /* \"#utility.yul\":13545:13571   */\n      swap1\n      pop\n        /* \"#utility.yul\":13581:13652   */\n      tag_321\n        /* \"#utility.yul\":13649:13650   */\n      0x00\n        /* \"#utility.yul\":13638:13647   */\n      dup4\n        /* \"#utility.yul\":13634:13651   */\n      add\n        /* \"#utility.yul\":13625:13631   */\n      dup6\n        /* \"#utility.yul\":13581:13652   */\n      tag_166\n      jump\t// in\n    tag_321:\n        /* \"#utility.yul\":13662:13734   */\n      tag_322\n        /* \"#utility.yul\":13730:13732   */\n      0x20\n        /* \"#utility.yul\":13719:13728   */\n      dup4\n        /* \"#utility.yul\":13715:13733   */\n      add\n        /* \"#utility.yul\":13706:13712   */\n      dup5\n        /* \"#utility.yul\":13662:13734   */\n      tag_166\n      jump\t// in\n    tag_322:\n        /* \"#utility.yul\":13409:13741   */\n      swap4\n      swap3\n      pop\n      pop\n      pop\n      jump\t// out\n        /* \"#utility.yul\":13747:13969   */\n    tag_107:\n        /* \"#utility.yul\":13840:13844   */\n      0x00\n        /* \"#utility.yul\":13878:13880   */\n      0x20\n        /* \"#utility.yul\":13867:13876   */\n      dup3\n        /* \"#utility.yul\":13863:13881   */\n      add\n        /* \"#utility.yul\":13855:13881   */\n      swap1\n      pop\n        /* \"#utility.yul\":13891:13962   */\n      tag_324\n        /* \"#utility.yul\":13959:13960   */\n      0x00\n        /* \"#utility.yul\":13948:13957   */\n      dup4\n        /* \"#utility.yul\":13944:13961   */\n      add\n        /* \"#utility.yul\":13935:13941   */\n      dup5\n        /* \"#utility.yul\":13891:13962   */\n      tag_166\n      jump\t// in\n    tag_324:\n        /* \"#utility.yul\":13747:13969   */\n      swap3\n      swap2\n      pop\n      pop\n      jump\t// out\n        /* \"#utility.yul\":13975:14144   */\n    tag_179:\n        /* \"#utility.yul\":14059:14070   */\n      0x00\n        /* \"#utility.yul\":14093:14099   */\n      dup3\n        /* \"#utility.yul\":14088:14091   */\n      dup3\n        /* \"#utility.yul\":14081:14100   */\n      mstore\n        /* \"#utility.yul\":14133:14137   */\n      0x20\n        /* \"#utility.yul\":14128:14131   */\n      dup3\n        /* \"#utility.yul\":14124:14138   */\n      add\n        /* \"#utility.yul\":14109:14138   */\n      swap1\n      pop\n        /* \"#utility.yul\":13975:14144   */\n      swap3\n      swap2\n      pop\n      pop\n      jump\t// out\n        /* \"#utility.yul\":14150:14317   */\n    tag_180:\n        /* \"#utility.yul\":14290:14309   */\n      0x416c6c6f77616e636520746f6f206c6f77000000000000000000000000000000\n        /* \"#utility.yul\":14286:14287   */\n      0x00\n        /* \"#utility.yul\":14278:14284   */\n      dup3\n        /* \"#utility.yul\":14274:14288   */\n      add\n        /* \"#utility.yul\":14267:14310   */\n      mstore\n        /* \"#utility.yul\":14150:14317   */\n      pop\n      jump\t// out\n        /* \"#utility.yul\":14323:14689   */\n    tag_181:\n        /* \"#utility.yul\":14465:14468   */\n      0x00\n        /* \"#utility.yul\":14486:14553   */\n      tag_328\n        /* \"#utility.yul\":14550:14552   */\n      0x11\n        /* \"#utility.yul\":14545:14548   */\n      dup4\n        /* \"#utility.yul\":14486:14553   */\n      tag_179\n      jump\t// in\n    tag_328:\n        /* \"#utility.yul\":14479:14553   */\n      swap2\n      pop\n        /* \"#utility.yul\":14562:14655   */\n      tag_329\n        /* \"#utility.yul\":14651:14654   */\n      dup3\n        /* \"#utility.yul\":14562:14655   */\n      tag_180\n      jump\t// in\n    tag_329:\n        /* \"#utility.yul\":14680:14682   */\n      0x20\n        /* \"#utility.yul\":14675:14678   */\n      dup3\n        /* \"#utility.yul\":14671:14683   */\n      add\n        /* \"#utility.yul\":14664:14683   */\n      swap1\n      pop\n        /* \"#utility.yul\":14323:14689   */\n      swap2\n      swap1\n      pop\n      jump\t// out\n        /* \"#utility.yul\":14695:15114   */\n    tag_113:\n        /* \"#utility.yul\":14861:14865   */\n      0x00\n        /* \"#utility.yul\":14899:14901   */\n      0x20\n        /* \"#utility.yul\":14888:14897   */\n      dup3\n        /* \"#utility.yul\":14884:14902   */\n      add\n        /* \"#utility.yul\":14876:14902   */\n      swap1\n      pop\n        /* \"#utility.yul\":14948:14957   */\n      dup2\n        /* \"#utility.yul\":14942:14946   */\n      dup2\n        /* \"#utility.yul\":14938:14958   */\n      sub\n        /* \"#utility.yul\":14934:14935   */\n      0x00\n        /* \"#utility.yul\":14923:14932   */\n      dup4\n        /* \"#utility.yul\":14919:14936   */\n      add\n        /* \"#utility.yul\":14912:14959   */\n      mstore\n        /* \"#utility.yul\":14976:15107   */\n      tag_331\n        /* \"#utility.yul\":15102:15106   */\n      dup2\n        /* \"#utility.yul\":14976:15107   */\n      tag_181\n      jump\t// in\n    tag_331:\n        /* \"#utility.yul\":14968:15107   */\n      swap1\n      pop\n        /* \"#utility.yul\":14695:15114   */\n      swap2\n      swap1\n      pop\n      jump\t// out\n        /* \"#utility.yul\":15120:15290   */\n    tag_182:\n        /* \"#utility.yul\":15260:15282   */\n      0x496e73756666696369656e742062616c616e6365000000000000000000000000\n        /* \"#utility.yul\":15256:15257   */\n      0x00\n        /* \"#utility.yul\":15248:15254   */\n      dup3\n        /* \"#utility.yul\":15244:15258   */\n      add\n        /* \"#utility.yul\":15237:15283   */\n      mstore\n        /* \"#utility.yul\":15120:15290   */\n      pop\n      jump\t// out\n        /* \"#utility.yul\":15296:15662   */\n    tag_183:\n        /* \"#utility.yul\":15438:15441   */\n      0x00\n        /* \"#utility.yul\":15459:15526   */\n      tag_334\n        /* \"#utility.yul\":15523:15525   */\n      0x14\n        /* \"#utility.yul\":15518:15521   */\n      dup4\n        /* \"#utility.yul\":15459:15526   */\n      tag_179\n      jump\t// in\n    tag_334:\n        /* \"#utility.yul\":15452:15526   */\n      swap2\n      pop\n        /* \"#utility.yul\":15535:15628   */\n      tag_335\n        /* \"#utility.yul\":15624:15627   */\n      dup3\n        /* \"#utility.yul\":15535:15628   */\n      tag_182\n      jump\t// in\n    tag_335:\n        /* \"#utility.yul\":15653:15655   */\n      0x20\n        /* \"#utility.yul\":15648:15651   */\n      dup3\n        /* \"#utility.yul\":15644:15656   */\n      add\n        /* \"#utility.yul\":15637:15656   */\n      swap1\n      pop\n        /* \"#utility.yul\":15296:15662   */\n      swap2\n      swap1\n      pop\n      jump\t// out\n        /* \"#utility.yul\":15668:16087   */\n    tag_116:\n        /* \"#utility.yul\":15834:15838   */\n      0x00\n        /* \"#utility.yul\":15872:15874   */\n      0x20\n        /* \"#utility.yul\":15861:15870   */\n      dup3\n        /* \"#utility.yul\":15857:15875   */\n      add\n        /* \"#utility.yul\":15849:15875   */\n      swap1\n      pop\n        /* \"#utility.yul\":15921:15930   */\n      dup2\n        /* \"#utility.yul\":15915:15919   */\n      dup2\n        /* \"#utility.yul\":15911:15931   */\n      sub\n        /* \"#utility.yul\":15907:15908   */\n      0x00\n        /* \"#utility.yul\":15896:15905   */\n      dup4\n        /* \"#utility.yul\":15892:15909   */\n      add\n        /* \"#utility.yul\":15885:15932   */\n      mstore\n        /* \"#utility.yul\":15949:16080   */\n      tag_337\n        /* \"#utility.yul\":16075:16079   */\n      dup2\n        /* \"#utility.yul\":15949:16080   */\n      tag_183\n      jump\t// in\n    tag_337:\n        /* \"#utility.yul\":15941:16080   */\n      swap1\n      pop\n        /* \"#utility.yul\":15668:16087   */\n      swap2\n      swap1\n      pop\n      jump\t// out\n\n    auxdata: 0xa264697066735822122021ee3f7d0de829e58cab3d8e70cd3a80ebd2073d3700f6f7e6c28ed06fca704464736f6c63430008140033\n}\n",
				"bytecode": {
					"linkReferences": {},
					"object": "60c060405234801562000010575f80fd5b50604051620017133803806200171383398181016040528101906200003691906200010b565b8173ffffffffffffffffffffffffffffffffffffffff1660808173ffffffffffffffffffffffffffffffffffffffff16815250508073ffffffffffffffffffffffffffffffffffffffff1660a08173ffffffffffffffffffffffffffffffffffffffff1681525050505062000150565b5f80fd5b5f73ffffffffffffffffffffffffffffffffffffffff82169050919050565b5f620000d582620000aa565b9050919050565b620000e781620000c9565b8114620000f2575f80fd5b50565b5f815190506200010581620000dc565b92915050565b5f8060408385031215620001245762000123620000a6565b5b5f6200013385828601620000f5565b92505060206200014685828601620000f5565b9150509250929050565b60805160a051611562620001b15f395f8181610213015281816102b90152818161035d015281816103d5015261045501525f8181610381015281816105c1015281816107280152818161086701528181610c550152610d9901526115625ff3fe608060405260043610610085575f3560e01c806387b8d2251161005857806387b8d22514610141578063c477b58114610169578063c9eb5e5a146101a5578063d22cc067146101cd578063e4eaab96146101e957610085565b806304907bbb146100895780631540e747146100b1578063218751b2146100ed578063735de9f714610117575b5f80fd5b348015610094575f80fd5b506100af60048036038101906100aa9190610e6d565b610211565b005b3480156100bc575f80fd5b506100d760048036038101906100d29190610eab565b6102b6565b6040516100e49190610ee5565b60405180910390f35b3480156100f8575f80fd5b5061010161035b565b60405161010e9190610f78565b60405180910390f35b348015610122575f80fd5b5061012b61037f565b6040516101389190610fb1565b60405180910390f35b34801561014c575f80fd5b5061016760048036038101906101629190610e6d565b6103a3565b005b348015610174575f80fd5b5061018f600480360381019061018a9190610eab565b6104f8565b60405161019c9190610ee5565b60405180910390f35b3480156101b0575f80fd5b506101cb60048036038101906101c69190610e6d565b610664565b005b6101e760048036038101906101e29190610eab565b610904565b005b3480156101f4575f80fd5b5061020f600480360381019061020a9190610e6d565b610b91565b005b7f000000000000000000000000000000000000000000000000000000000000000073ffffffffffffffffffffffffffffffffffffffff16633df021245f600185856040518563ffffffff1660e01b81526004016102719493929190611048565b6020604051808303815f875af115801561028d573d5f803e3d5ffd5b505050506040513d601f19601f820116820180604052508101906102b1919061109f565b505050565b5f7f000000000000000000000000000000000000000000000000000000000000000073ffffffffffffffffffffffffffffffffffffffff16635e0d443f5f6001856040518463ffffffff1660e01b8152600401610315939291906110ca565b602060405180830381865afa158015610330573d5f803e3d5ffd5b505050506040513d601f19601f82011682018060405250810190610354919061109f565b9050919050565b7f000000000000000000000000000000000000000000000000000000000000000081565b7f000000000000000000000000000000000000000000000000000000000000000081565b73c02aaa39b223fe8d0a0e5c4f27ead9083c756cc273ffffffffffffffffffffffffffffffffffffffff1663095ea7b37f0000000000000000000000000000000000000000000000000000000000000000836040518363ffffffff1660e01b815260040161041292919061111f565b6020604051808303815f875af115801561042e573d5f803e3d5ffd5b505050506040513d601f19601f82011682018060405250810190610452919061117b565b507f000000000000000000000000000000000000000000000000000000000000000073ffffffffffffffffffffffffffffffffffffffff16633df0212460015f855f6040518563ffffffff1660e01b81526004016104b394939291906111d6565b6020604051808303815f875af11580156104cf573d5f803e3d5ffd5b505050506040513d601f19601f820116820180604052508101906104f3919061109f565b505050565b5f8060405180610100016040528073a0b86991c6218b36c1d19d4a2e9eb0ce3606eb4873ffffffffffffffffffffffffffffffffffffffff16815260200173c02aaa39b223fe8d0a0e5c4f27ead9083c756cc273ffffffffffffffffffffffffffffffffffffffff168152602001610bb862ffffff1681526020013373ffffffffffffffffffffffffffffffffffffffff168152602001428152602001848152602001600181526020015f73ffffffffffffffffffffffffffffffffffffffff1681525090505f7f000000000000000000000000000000000000000000000000000000000000000073ffffffffffffffffffffffffffffffffffffffff1663414bf389836040518263ffffffff1660e01b81526004016106189190611303565b6020604051808303815f875af1158015610634573d5f803e3d5ffd5b505050506040513d601f19601f82011682018060405250810190610658919061109f565b90508092505050919050565b73c02aaa39b223fe8d0a0e5c4f27ead9083c756cc273ffffffffffffffffffffffffffffffffffffffff166323b872dd3330846040518463ffffffff1660e01b81526004016106b59392919061131d565b6020604051808303815f875af11580156106d1573d5f803e3d5ffd5b505050506040513d601f19601f820116820180604052508101906106f5919061117b565b5073c02aaa39b223fe8d0a0e5c4f27ead9083c756cc273ffffffffffffffffffffffffffffffffffffffff1663095ea7b37f0000000000000000000000000000000000000000000000000000000000000000836040518363ffffffff1660e01b815260040161076592919061111f565b6020604051808303815f875af1158015610781573d5f803e3d5ffd5b505050506040513d601f19601f820116820180604052508101906107a5919061117b565b505f60405180610100016040528073a0b86991c6218b36c1d19d4a2e9eb0ce3606eb4873ffffffffffffffffffffffffffffffffffffffff16815260200173c02aaa39b223fe8d0a0e5c4f27ead9083c756cc273ffffffffffffffffffffffffffffffffffffffff168152602001610bb881526020014281526020013373ffffffffffffffffffffffffffffffffffffffff1681526020018481526020018381526020015f73ffffffffffffffffffffffffffffffffffffffff1681525090507f000000000000000000000000000000000000000000000000000000000000000073ffffffffffffffffffffffffffffffffffffffff166326a966c4826040518263ffffffff1660e01b81526004016108be91906113f2565b6020604051808303815f875af11580156108da573d5f803e3d5ffd5b505050506040513d601f19601f820116820180604052508101906108fe919061109f565b50505050565b5f73a0b86991c6218b36c1d19d4a2e9eb0ce3606eb4873ffffffffffffffffffffffffffffffffffffffff1663dd62ed3e33306040518363ffffffff1660e01b815260040161095492919061140c565b602060405180830381865afa15801561096f573d5f803e3d5ffd5b505050506040513d601f19601f82011682018060405250810190610993919061109f565b90505f73a0b86991c6218b36c1d19d4a2e9eb0ce3606eb4873ffffffffffffffffffffffffffffffffffffffff166370a08231336040518263ffffffff1660e01b81526004016109e39190611433565b602060405180830381865afa1580156109fe573d5f803e3d5ffd5b505050506040513d601f19601f82011682018060405250810190610a22919061109f565b905082821015610a67576040517f08c379a0000000000000000000000000000000000000000000000000000000008152600401610a5e906114a6565b60405180910390fd5b82811015610aaa576040517f08c379a0000000000000000000000000000000000000000000000000000000008152600401610aa19061150e565b60405180910390fd5b73a0b86991c6218b36c1d19d4a2e9eb0ce3606eb4873ffffffffffffffffffffffffffffffffffffffff166323b872dd3330866040518463ffffffff1660e01b8152600401610afb9392919061131d565b6020604051808303815f875af1158015610b17573d5f803e3d5ffd5b505050506040513d601f19601f82011682018060405250810190610b3b919061117b565b505f610b46846104f8565b90505f610b52856102b6565b905080821115610b7557610b668582610211565b610b708582610664565b610b8a565b610b7f8583610b91565b610b8982866103a3565b5b5050505050565b73a0b86991c6218b36c1d19d4a2e9eb0ce3606eb4873ffffffffffffffffffffffffffffffffffffffff166323b872dd3330856040518463ffffffff1660e01b8152600401610be29392919061131d565b6020604051808303815f875af1158015610bfe573d5f803e3d5ffd5b505050506040513d601f19601f82011682018060405250810190610c22919061117b565b5073a0b86991c6218b36c1d19d4a2e9eb0ce3606eb4873ffffffffffffffffffffffffffffffffffffffff1663095ea7b37f0000000000000000000000000000000000000000000000000000000000000000846040518363ffffffff1660e01b8152600401610c9292919061111f565b6020604051808303815f875af1158015610cae573d5f803e3d5ffd5b505050506040513d601f19601f82011682018060405250810190610cd2919061117b565b505f60405180610100016040528073a0b86991c6218b36c1d19d4a2e9eb0ce3606eb4873ffffffffffffffffffffffffffffffffffffffff16815260200173c02aaa39b223fe8d0a0e5c4f27ead9083c756cc273ffffffffffffffffffffffffffffffffffffffff168152602001610bb862ffffff1681526020013373ffffffffffffffffffffffffffffffffffffffff1681526020014281526020018481526020018381526020015f73ffffffffffffffffffffffffffffffffffffffff1681525090507f000000000000000000000000000000000000000000000000000000000000000073ffffffffffffffffffffffffffffffffffffffff1663414bf389826040518263ffffffff1660e01b8152600401610df09190611303565b6020604051808303815f875af1158015610e0c573d5f803e3d5ffd5b505050506040513d601f19601f82011682018060405250810190610e30919061109f565b50505050565b5f80fd5b5f819050919050565b610e4c81610e3a565b8114610e56575f80fd5b50565b5f81359050610e6781610e43565b92915050565b5f8060408385031215610e8357610e82610e36565b5b5f610e9085828601610e59565b9250506020610ea185828601610e59565b9150509250929050565b5f60208284031215610ec057610ebf610e36565b5b5f610ecd84828501610e59565b91505092915050565b610edf81610e3a565b82525050565b5f602082019050610ef85f830184610ed6565b92915050565b5f73ffffffffffffffffffffffffffffffffffffffff82169050919050565b5f819050919050565b5f610f40610f3b610f3684610efe565b610f1d565b610efe565b9050919050565b5f610f5182610f26565b9050919050565b5f610f6282610f47565b9050919050565b610f7281610f58565b82525050565b5f602082019050610f8b5f830184610f69565b92915050565b5f610f9b82610f47565b9050919050565b610fab81610f91565b82525050565b5f602082019050610fc45f830184610fa2565b92915050565b5f819050919050565b5f81600f0b9050919050565b5f610ff9610ff4610fef84610fca565b610f1d565b610fd3565b9050919050565b61100981610fdf565b82525050565b5f819050919050565b5f61103261102d6110288461100f565b610f1d565b610fd3565b9050919050565b61104281611018565b82525050565b5f60808201905061105b5f830187611000565b6110686020830186611039565b6110756040830185610ed6565b6110826060830184610ed6565b95945050505050565b5f8151905061109981610e43565b92915050565b5f602082840312156110b4576110b3610e36565b5b5f6110c18482850161108b565b91505092915050565b5f6060820190506110dd5f830186611000565b6110ea6020830185611039565b6110f76040830184610ed6565b949350505050565b5f61110982610efe565b9050919050565b611119816110ff565b82525050565b5f6040820190506111325f830185611110565b61113f6020830184610ed6565b9392505050565b5f8115159050919050565b61115a81611146565b8114611164575f80fd5b50565b5f8151905061117581611151565b92915050565b5f602082840312156111905761118f610e36565b5b5f61119d84828501611167565b91505092915050565b5f6111c06111bb6111b684610fca565b610f1d565b610e3a565b9050919050565b6111d0816111a6565b82525050565b5f6080820190506111e95f830187611039565b6111f66020830186611000565b6112036040830185610ed6565b61121060608301846111c7565b95945050505050565b611222816110ff565b82525050565b5f62ffffff82169050919050565b61123f81611228565b82525050565b61124e81610e3a565b82525050565b61125d81610efe565b82525050565b61010082015f8201516112785f850182611219565b50602082015161128b6020850182611219565b50604082015161129e6040850182611236565b5060608201516112b16060850182611219565b5060808201516112c46080850182611245565b5060a08201516112d760a0850182611245565b5060c08201516112ea60c0850182611245565b5060e08201516112fd60e0850182611254565b50505050565b5f610100820190506113175f830184611263565b92915050565b5f6060820190506113305f830186611110565b61133d6020830185611110565b61134a6040830184610ed6565b949350505050565b61010082015f8201516113675f850182611219565b50602082015161137a6020850182611219565b50604082015161138d6040850182611245565b5060608201516113a06060850182611245565b5060808201516113b36080850182611219565b5060a08201516113c660a0850182611245565b5060c08201516113d960c0850182611245565b5060e08201516113ec60e0850182611254565b50505050565b5f610100820190506114065f830184611352565b92915050565b5f60408201905061141f5f830185611110565b61142c6020830184611110565b9392505050565b5f6020820190506114465f830184611110565b92915050565b5f82825260208201905092915050565b7f416c6c6f77616e636520746f6f206c6f770000000000000000000000000000005f82015250565b5f61149060118361144c565b915061149b8261145c565b602082019050919050565b5f6020820190508181035f8301526114bd81611484565b9050919050565b7f496e73756666696369656e742062616c616e63650000000000000000000000005f82015250565b5f6114f860148361144c565b9150611503826114c4565b602082019050919050565b5f6020820190508181035f830152611525816114ec565b905091905056fea264697066735822122021ee3f7d0de829e58cab3d8e70cd3a80ebd2073d3700f6f7e6c28ed06fca704464736f6c63430008140033",
					"opcodes": "PUSH1 0xC0 PUSH1 0x40 MSTORE CALLVALUE DUP1 ISZERO PUSH3 0x10 JUMPI PUSH0 DUP1 REVERT JUMPDEST POP PUSH1 0x40 MLOAD PUSH3 0x1713 CODESIZE SUB DUP1 PUSH3 0x1713 DUP4 CODECOPY DUP2 DUP2 ADD PUSH1 0x40 MSTORE DUP2 ADD SWAP1 PUSH3 0x36 SWAP2 SWAP1 PUSH3 0x10B JUMP JUMPDEST DUP2 PUSH20 0xFFFFFFFFFFFFFFFFFFFFFFFFFFFFFFFFFFFFFFFF AND PUSH1 0x80 DUP2 PUSH20 0xFFFFFFFFFFFFFFFFFFFFFFFFFFFFFFFFFFFFFFFF AND DUP2 MSTORE POP POP DUP1 PUSH20 0xFFFFFFFFFFFFFFFFFFFFFFFFFFFFFFFFFFFFFFFF AND PUSH1 0xA0 DUP2 PUSH20 0xFFFFFFFFFFFFFFFFFFFFFFFFFFFFFFFFFFFFFFFF AND DUP2 MSTORE POP POP POP POP PUSH3 0x150 JUMP JUMPDEST PUSH0 DUP1 REVERT JUMPDEST PUSH0 PUSH20 0xFFFFFFFFFFFFFFFFFFFFFFFFFFFFFFFFFFFFFFFF DUP3 AND SWAP1 POP SWAP2 SWAP1 POP JUMP JUMPDEST PUSH0 PUSH3 0xD5 DUP3 PUSH3 0xAA JUMP JUMPDEST SWAP1 POP SWAP2 SWAP1 POP JUMP JUMPDEST PUSH3 0xE7 DUP2 PUSH3 0xC9 JUMP JUMPDEST DUP2 EQ PUSH3 0xF2 JUMPI PUSH0 DUP1 REVERT JUMPDEST POP JUMP JUMPDEST PUSH0 DUP2 MLOAD SWAP1 POP PUSH3 0x105 DUP2 PUSH3 0xDC JUMP JUMPDEST SWAP3 SWAP2 POP POP JUMP JUMPDEST PUSH0 DUP1 PUSH1 0x40 DUP4 DUP6 SUB SLT ISZERO PUSH3 0x124 JUMPI PUSH3 0x123 PUSH3 0xA6 JUMP JUMPDEST JUMPDEST PUSH0 PUSH3 0x133 DUP6 DUP3 DUP7 ADD PUSH3 0xF5 JUMP JUMPDEST SWAP3 POP POP PUSH1 0x20 PUSH3 0x146 DUP6 DUP3 DUP7 ADD PUSH3 0xF5 JUMP JUMPDEST SWAP2 POP POP SWAP3 POP SWAP3 SWAP1 POP JUMP JUMPDEST PUSH1 0x80 MLOAD PUSH1 0xA0 MLOAD PUSH2 0x1562 PUSH3 0x1B1 PUSH0 CODECOPY PUSH0 DUP2 DUP2 PUSH2 0x213 ADD MSTORE DUP2 DUP2 PUSH2 0x2B9 ADD MSTORE DUP2 DUP2 PUSH2 0x35D ADD MSTORE DUP2 DUP2 PUSH2 0x3D5 ADD MSTORE PUSH2 0x455 ADD MSTORE PUSH0 DUP2 DUP2 PUSH2 0x381 ADD MSTORE DUP2 DUP2 PUSH2 0x5C1 ADD MSTORE DUP2 DUP2 PUSH2 0x728 ADD MSTORE DUP2 DUP2 PUSH2 0x867 ADD MSTORE DUP2 DUP2 PUSH2 0xC55 ADD MSTORE PUSH2 0xD99 ADD MSTORE PUSH2 0x1562 PUSH0 RETURN INVALID PUSH1 0x80 PUSH1 0x40 MSTORE PUSH1 0x4 CALLDATASIZE LT PUSH2 0x85 JUMPI PUSH0 CALLDATALOAD PUSH1 0xE0 SHR DUP1 PUSH4 0x87B8D225 GT PUSH2 0x58 JUMPI DUP1 PUSH4 0x87B8D225 EQ PUSH2 0x141 JUMPI DUP1 PUSH4 0xC477B581 EQ PUSH2 0x169 JUMPI DUP1 PUSH4 0xC9EB5E5A EQ PUSH2 0x1A5 JUMPI DUP1 PUSH4 0xD22CC067 EQ PUSH2 0x1CD JUMPI DUP1 PUSH4 0xE4EAAB96 EQ PUSH2 0x1E9 JUMPI PUSH2 0x85 JUMP JUMPDEST DUP1 PUSH4 0x4907BBB EQ PUSH2 0x89 JUMPI DUP1 PUSH4 0x1540E747 EQ PUSH2 0xB1 JUMPI DUP1 PUSH4 0x218751B2 EQ PUSH2 0xED JUMPI DUP1 PUSH4 0x735DE9F7 EQ PUSH2 0x117 JUMPI JUMPDEST PUSH0 DUP1 REVERT JUMPDEST CALLVALUE DUP1 ISZERO PUSH2 0x94 JUMPI PUSH0 DUP1 REVERT JUMPDEST POP PUSH2 0xAF PUSH1 0x4 DUP1 CALLDATASIZE SUB DUP2 ADD SWAP1 PUSH2 0xAA SWAP2 SWAP1 PUSH2 0xE6D JUMP JUMPDEST PUSH2 0x211 JUMP JUMPDEST STOP JUMPDEST CALLVALUE DUP1 ISZERO PUSH2 0xBC JUMPI PUSH0 DUP1 REVERT JUMPDEST POP PUSH2 0xD7 PUSH1 0x4 DUP1 CALLDATASIZE SUB DUP2 ADD SWAP1 PUSH2 0xD2 SWAP2 SWAP1 PUSH2 0xEAB JUMP JUMPDEST PUSH2 0x2B6 JUMP JUMPDEST PUSH1 0x40 MLOAD PUSH2 0xE4 SWAP2 SWAP1 PUSH2 0xEE5 JUMP JUMPDEST PUSH1 0x40 MLOAD DUP1 SWAP2 SUB SWAP1 RETURN JUMPDEST CALLVALUE DUP1 ISZERO PUSH2 0xF8 JUMPI PUSH0 DUP1 REVERT JUMPDEST POP PUSH2 0x101 PUSH2 0x35B JUMP JUMPDEST PUSH1 0x40 MLOAD PUSH2 0x10E SWAP2 SWAP1 PUSH2 0xF78 JUMP JUMPDEST PUSH1 0x40 MLOAD DUP1 SWAP2 SUB SWAP1 RETURN JUMPDEST CALLVALUE DUP1 ISZERO PUSH2 0x122 JUMPI PUSH0 DUP1 REVERT JUMPDEST POP PUSH2 0x12B PUSH2 0x37F JUMP JUMPDEST PUSH1 0x40 MLOAD PUSH2 0x138 SWAP2 SWAP1 PUSH2 0xFB1 JUMP JUMPDEST PUSH1 0x40 MLOAD DUP1 SWAP2 SUB SWAP1 RETURN JUMPDEST CALLVALUE DUP1 ISZERO PUSH2 0x14C JUMPI PUSH0 DUP1 REVERT JUMPDEST POP PUSH2 0x167 PUSH1 0x4 DUP1 CALLDATASIZE SUB DUP2 ADD SWAP1 PUSH2 0x162 SWAP2 SWAP1 PUSH2 0xE6D JUMP JUMPDEST PUSH2 0x3A3 JUMP JUMPDEST STOP JUMPDEST CALLVALUE DUP1 ISZERO PUSH2 0x174 JUMPI PUSH0 DUP1 REVERT JUMPDEST POP PUSH2 0x18F PUSH1 0x4 DUP1 CALLDATASIZE SUB DUP2 ADD SWAP1 PUSH2 0x18A SWAP2 SWAP1 PUSH2 0xEAB JUMP JUMPDEST PUSH2 0x4F8 JUMP JUMPDEST PUSH1 0x40 MLOAD PUSH2 0x19C SWAP2 SWAP1 PUSH2 0xEE5 JUMP JUMPDEST PUSH1 0x40 MLOAD DUP1 SWAP2 SUB SWAP1 RETURN JUMPDEST CALLVALUE DUP1 ISZERO PUSH2 0x1B0 JUMPI PUSH0 DUP1 REVERT JUMPDEST POP PUSH2 0x1CB PUSH1 0x4 DUP1 CALLDATASIZE SUB DUP2 ADD SWAP1 PUSH2 0x1C6 SWAP2 SWAP1 PUSH2 0xE6D JUMP JUMPDEST PUSH2 0x664 JUMP JUMPDEST STOP JUMPDEST PUSH2 0x1E7 PUSH1 0x4 DUP1 CALLDATASIZE SUB DUP2 ADD SWAP1 PUSH2 0x1E2 SWAP2 SWAP1 PUSH2 0xEAB JUMP JUMPDEST PUSH2 0x904 JUMP JUMPDEST STOP JUMPDEST CALLVALUE DUP1 ISZERO PUSH2 0x1F4 JUMPI PUSH0 DUP1 REVERT JUMPDEST POP PUSH2 0x20F PUSH1 0x4 DUP1 CALLDATASIZE SUB DUP2 ADD SWAP1 PUSH2 0x20A SWAP2 SWAP1 PUSH2 0xE6D JUMP JUMPDEST PUSH2 0xB91 JUMP JUMPDEST STOP JUMPDEST PUSH32 0x0 PUSH20 0xFFFFFFFFFFFFFFFFFFFFFFFFFFFFFFFFFFFFFFFF AND PUSH4 0x3DF02124 PUSH0 PUSH1 0x1 DUP6 DUP6 PUSH1 0x40 MLOAD DUP6 PUSH4 0xFFFFFFFF AND PUSH1 0xE0 SHL DUP2 MSTORE PUSH1 0x4 ADD PUSH2 0x271 SWAP5 SWAP4 SWAP3 SWAP2 SWAP1 PUSH2 0x1048 JUMP JUMPDEST PUSH1 0x20 PUSH1 0x40 MLOAD DUP1 DUP4 SUB DUP2 PUSH0 DUP8 GAS CALL ISZERO DUP1 ISZERO PUSH2 0x28D JUMPI RETURNDATASIZE PUSH0 DUP1 RETURNDATACOPY RETURNDATASIZE PUSH0 REVERT JUMPDEST POP POP POP POP PUSH1 0x40 MLOAD RETURNDATASIZE PUSH1 0x1F NOT PUSH1 0x1F DUP3 ADD AND DUP3 ADD DUP1 PUSH1 0x40 MSTORE POP DUP2 ADD SWAP1 PUSH2 0x2B1 SWAP2 SWAP1 PUSH2 0x109F JUMP JUMPDEST POP POP POP JUMP JUMPDEST PUSH0 PUSH32 0x0 PUSH20 0xFFFFFFFFFFFFFFFFFFFFFFFFFFFFFFFFFFFFFFFF AND PUSH4 0x5E0D443F PUSH0 PUSH1 0x1 DUP6 PUSH1 0x40 MLOAD DUP5 PUSH4 0xFFFFFFFF AND PUSH1 0xE0 SHL DUP2 MSTORE PUSH1 0x4 ADD PUSH2 0x315 SWAP4 SWAP3 SWAP2 SWAP1 PUSH2 0x10CA JUMP JUMPDEST PUSH1 0x20 PUSH1 0x40 MLOAD DUP1 DUP4 SUB DUP2 DUP7 GAS STATICCALL ISZERO DUP1 ISZERO PUSH2 0x330 JUMPI RETURNDATASIZE PUSH0 DUP1 RETURNDATACOPY RETURNDATASIZE PUSH0 REVERT JUMPDEST POP POP POP POP PUSH1 0x40 MLOAD RETURNDATASIZE PUSH1 0x1F NOT PUSH1 0x1F DUP3 ADD AND DUP3 ADD DUP1 PUSH1 0x40 MSTORE POP DUP2 ADD SWAP1 PUSH2 0x354 SWAP2 SWAP1 PUSH2 0x109F JUMP JUMPDEST SWAP1 POP SWAP2 SWAP1 POP JUMP JUMPDEST PUSH32 0x0 DUP2 JUMP JUMPDEST PUSH32 0x0 DUP2 JUMP JUMPDEST PUSH20 0xC02AAA39B223FE8D0A0E5C4F27EAD9083C756CC2 PUSH20 0xFFFFFFFFFFFFFFFFFFFFFFFFFFFFFFFFFFFFFFFF AND PUSH4 0x95EA7B3 PUSH32 0x0 DUP4 PUSH1 0x40 MLOAD DUP4 PUSH4 0xFFFFFFFF AND PUSH1 0xE0 SHL DUP2 MSTORE PUSH1 0x4 ADD PUSH2 0x412 SWAP3 SWAP2 SWAP1 PUSH2 0x111F JUMP JUMPDEST PUSH1 0x20 PUSH1 0x40 MLOAD DUP1 DUP4 SUB DUP2 PUSH0 DUP8 GAS CALL ISZERO DUP1 ISZERO PUSH2 0x42E JUMPI RETURNDATASIZE PUSH0 DUP1 RETURNDATACOPY RETURNDATASIZE PUSH0 REVERT JUMPDEST POP POP POP POP PUSH1 0x40 MLOAD RETURNDATASIZE PUSH1 0x1F NOT PUSH1 0x1F DUP3 ADD AND DUP3 ADD DUP1 PUSH1 0x40 MSTORE POP DUP2 ADD SWAP1 PUSH2 0x452 SWAP2 SWAP1 PUSH2 0x117B JUMP JUMPDEST POP PUSH32 0x0 PUSH20 0xFFFFFFFFFFFFFFFFFFFFFFFFFFFFFFFFFFFFFFFF AND PUSH4 0x3DF02124 PUSH1 0x1 PUSH0 DUP6 PUSH0 PUSH1 0x40 MLOAD DUP6 PUSH4 0xFFFFFFFF AND PUSH1 0xE0 SHL DUP2 MSTORE PUSH1 0x4 ADD PUSH2 0x4B3 SWAP5 SWAP4 SWAP3 SWAP2 SWAP1 PUSH2 0x11D6 JUMP JUMPDEST PUSH1 0x20 PUSH1 0x40 MLOAD DUP1 DUP4 SUB DUP2 PUSH0 DUP8 GAS CALL ISZERO DUP1 ISZERO PUSH2 0x4CF JUMPI RETURNDATASIZE PUSH0 DUP1 RETURNDATACOPY RETURNDATASIZE PUSH0 REVERT JUMPDEST POP POP POP POP PUSH1 0x40 MLOAD RETURNDATASIZE PUSH1 0x1F NOT PUSH1 0x1F DUP3 ADD AND DUP3 ADD DUP1 PUSH1 0x40 MSTORE POP DUP2 ADD SWAP1 PUSH2 0x4F3 SWAP2 SWAP1 PUSH2 0x109F JUMP JUMPDEST POP POP POP JUMP JUMPDEST PUSH0 DUP1 PUSH1 0x40 MLOAD DUP1 PUSH2 0x100 ADD PUSH1 0x40 MSTORE DUP1 PUSH20 0xA0B86991C6218B36C1D19D4A2E9EB0CE3606EB48 PUSH20 0xFFFFFFFFFFFFFFFFFFFFFFFFFFFFFFFFFFFFFFFF AND DUP2 MSTORE PUSH1 0x20 ADD PUSH20 0xC02AAA39B223FE8D0A0E5C4F27EAD9083C756CC2 PUSH20 0xFFFFFFFFFFFFFFFFFFFFFFFFFFFFFFFFFFFFFFFF AND DUP2 MSTORE PUSH1 0x20 ADD PUSH2 0xBB8 PUSH3 0xFFFFFF AND DUP2 MSTORE PUSH1 0x20 ADD CALLER PUSH20 0xFFFFFFFFFFFFFFFFFFFFFFFFFFFFFFFFFFFFFFFF AND DUP2 MSTORE PUSH1 0x20 ADD TIMESTAMP DUP2 MSTORE PUSH1 0x20 ADD DUP5 DUP2 MSTORE PUSH1 0x20 ADD PUSH1 0x1 DUP2 MSTORE PUSH1 0x20 ADD PUSH0 PUSH20 0xFFFFFFFFFFFFFFFFFFFFFFFFFFFFFFFFFFFFFFFF AND DUP2 MSTORE POP SWAP1 POP PUSH0 PUSH32 0x0 PUSH20 0xFFFFFFFFFFFFFFFFFFFFFFFFFFFFFFFFFFFFFFFF AND PUSH4 0x414BF389 DUP4 PUSH1 0x40 MLOAD DUP3 PUSH4 0xFFFFFFFF AND PUSH1 0xE0 SHL DUP2 MSTORE PUSH1 0x4 ADD PUSH2 0x618 SWAP2 SWAP1 PUSH2 0x1303 JUMP JUMPDEST PUSH1 0x20 PUSH1 0x40 MLOAD DUP1 DUP4 SUB DUP2 PUSH0 DUP8 GAS CALL ISZERO DUP1 ISZERO PUSH2 0x634 JUMPI RETURNDATASIZE PUSH0 DUP1 RETURNDATACOPY RETURNDATASIZE PUSH0 REVERT JUMPDEST POP POP POP POP PUSH1 0x40 MLOAD RETURNDATASIZE PUSH1 0x1F NOT PUSH1 0x1F DUP3 ADD AND DUP3 ADD DUP1 PUSH1 0x40 MSTORE POP DUP2 ADD SWAP1 PUSH2 0x658 SWAP2 SWAP1 PUSH2 0x109F JUMP JUMPDEST SWAP1 POP DUP1 SWAP3 POP POP POP SWAP2 SWAP1 POP JUMP JUMPDEST PUSH20 0xC02AAA39B223FE8D0A0E5C4F27EAD9083C756CC2 PUSH20 0xFFFFFFFFFFFFFFFFFFFFFFFFFFFFFFFFFFFFFFFF AND PUSH4 0x23B872DD CALLER ADDRESS DUP5 PUSH1 0x40 MLOAD DUP5 PUSH4 0xFFFFFFFF AND PUSH1 0xE0 SHL DUP2 MSTORE PUSH1 0x4 ADD PUSH2 0x6B5 SWAP4 SWAP3 SWAP2 SWAP1 PUSH2 0x131D JUMP JUMPDEST PUSH1 0x20 PUSH1 0x40 MLOAD DUP1 DUP4 SUB DUP2 PUSH0 DUP8 GAS CALL ISZERO DUP1 ISZERO PUSH2 0x6D1 JUMPI RETURNDATASIZE PUSH0 DUP1 RETURNDATACOPY RETURNDATASIZE PUSH0 REVERT JUMPDEST POP POP POP POP PUSH1 0x40 MLOAD RETURNDATASIZE PUSH1 0x1F NOT PUSH1 0x1F DUP3 ADD AND DUP3 ADD DUP1 PUSH1 0x40 MSTORE POP DUP2 ADD SWAP1 PUSH2 0x6F5 SWAP2 SWAP1 PUSH2 0x117B JUMP JUMPDEST POP PUSH20 0xC02AAA39B223FE8D0A0E5C4F27EAD9083C756CC2 PUSH20 0xFFFFFFFFFFFFFFFFFFFFFFFFFFFFFFFFFFFFFFFF AND PUSH4 0x95EA7B3 PUSH32 0x0 DUP4 PUSH1 0x40 MLOAD DUP4 PUSH4 0xFFFFFFFF AND PUSH1 0xE0 SHL DUP2 MSTORE PUSH1 0x4 ADD PUSH2 0x765 SWAP3 SWAP2 SWAP1 PUSH2 0x111F JUMP JUMPDEST PUSH1 0x20 PUSH1 0x40 MLOAD DUP1 DUP4 SUB DUP2 PUSH0 DUP8 GAS CALL ISZERO DUP1 ISZERO PUSH2 0x781 JUMPI RETURNDATASIZE PUSH0 DUP1 RETURNDATACOPY RETURNDATASIZE PUSH0 REVERT JUMPDEST POP POP POP POP PUSH1 0x40 MLOAD RETURNDATASIZE PUSH1 0x1F NOT PUSH1 0x1F DUP3 ADD AND DUP3 ADD DUP1 PUSH1 0x40 MSTORE POP DUP2 ADD SWAP1 PUSH2 0x7A5 SWAP2 SWAP1 PUSH2 0x117B JUMP JUMPDEST POP PUSH0 PUSH1 0x40 MLOAD DUP1 PUSH2 0x100 ADD PUSH1 0x40 MSTORE DUP1 PUSH20 0xA0B86991C6218B36C1D19D4A2E9EB0CE3606EB48 PUSH20 0xFFFFFFFFFFFFFFFFFFFFFFFFFFFFFFFFFFFFFFFF AND DUP2 MSTORE PUSH1 0x20 ADD PUSH20 0xC02AAA39B223FE8D0A0E5C4F27EAD9083C756CC2 PUSH20 0xFFFFFFFFFFFFFFFFFFFFFFFFFFFFFFFFFFFFFFFF AND DUP2 MSTORE PUSH1 0x20 ADD PUSH2 0xBB8 DUP2 MSTORE PUSH1 0x20 ADD TIMESTAMP DUP2 MSTORE PUSH1 0x20 ADD CALLER PUSH20 0xFFFFFFFFFFFFFFFFFFFFFFFFFFFFFFFFFFFFFFFF AND DUP2 MSTORE PUSH1 0x20 ADD DUP5 DUP2 MSTORE PUSH1 0x20 ADD DUP4 DUP2 MSTORE PUSH1 0x20 ADD PUSH0 PUSH20 0xFFFFFFFFFFFFFFFFFFFFFFFFFFFFFFFFFFFFFFFF AND DUP2 MSTORE POP SWAP1 POP PUSH32 0x0 PUSH20 0xFFFFFFFFFFFFFFFFFFFFFFFFFFFFFFFFFFFFFFFF AND PUSH4 0x26A966C4 DUP3 PUSH1 0x40 MLOAD DUP3 PUSH4 0xFFFFFFFF AND PUSH1 0xE0 SHL DUP2 MSTORE PUSH1 0x4 ADD PUSH2 0x8BE SWAP2 SWAP1 PUSH2 0x13F2 JUMP JUMPDEST PUSH1 0x20 PUSH1 0x40 MLOAD DUP1 DUP4 SUB DUP2 PUSH0 DUP8 GAS CALL ISZERO DUP1 ISZERO PUSH2 0x8DA JUMPI RETURNDATASIZE PUSH0 DUP1 RETURNDATACOPY RETURNDATASIZE PUSH0 REVERT JUMPDEST POP POP POP POP PUSH1 0x40 MLOAD RETURNDATASIZE PUSH1 0x1F NOT PUSH1 0x1F DUP3 ADD AND DUP3 ADD DUP1 PUSH1 0x40 MSTORE POP DUP2 ADD SWAP1 PUSH2 0x8FE SWAP2 SWAP1 PUSH2 0x109F JUMP JUMPDEST POP POP POP POP JUMP JUMPDEST PUSH0 PUSH20 0xA0B86991C6218B36C1D19D4A2E9EB0CE3606EB48 PUSH20 0xFFFFFFFFFFFFFFFFFFFFFFFFFFFFFFFFFFFFFFFF AND PUSH4 0xDD62ED3E CALLER ADDRESS PUSH1 0x40 MLOAD DUP4 PUSH4 0xFFFFFFFF AND PUSH1 0xE0 SHL DUP2 MSTORE PUSH1 0x4 ADD PUSH2 0x954 SWAP3 SWAP2 SWAP1 PUSH2 0x140C JUMP JUMPDEST PUSH1 0x20 PUSH1 0x40 MLOAD DUP1 DUP4 SUB DUP2 DUP7 GAS STATICCALL ISZERO DUP1 ISZERO PUSH2 0x96F JUMPI RETURNDATASIZE PUSH0 DUP1 RETURNDATACOPY RETURNDATASIZE PUSH0 REVERT JUMPDEST POP POP POP POP PUSH1 0x40 MLOAD RETURNDATASIZE PUSH1 0x1F NOT PUSH1 0x1F DUP3 ADD AND DUP3 ADD DUP1 PUSH1 0x40 MSTORE POP DUP2 ADD SWAP1 PUSH2 0x993 SWAP2 SWAP1 PUSH2 0x109F JUMP JUMPDEST SWAP1 POP PUSH0 PUSH20 0xA0B86991C6218B36C1D19D4A2E9EB0CE3606EB48 PUSH20 0xFFFFFFFFFFFFFFFFFFFFFFFFFFFFFFFFFFFFFFFF AND PUSH4 0x70A08231 CALLER PUSH1 0x40 MLOAD DUP3 PUSH4 0xFFFFFFFF AND PUSH1 0xE0 SHL DUP2 MSTORE PUSH1 0x4 ADD PUSH2 0x9E3 SWAP2 SWAP1 PUSH2 0x1433 JUMP JUMPDEST PUSH1 0x20 PUSH1 0x40 MLOAD DUP1 DUP4 SUB DUP2 DUP7 GAS STATICCALL ISZERO DUP1 ISZERO PUSH2 0x9FE JUMPI RETURNDATASIZE PUSH0 DUP1 RETURNDATACOPY RETURNDATASIZE PUSH0 REVERT JUMPDEST POP POP POP POP PUSH1 0x40 MLOAD RETURNDATASIZE PUSH1 0x1F NOT PUSH1 0x1F DUP3 ADD AND DUP3 ADD DUP1 PUSH1 0x40 MSTORE POP DUP2 ADD SWAP1 PUSH2 0xA22 SWAP2 SWAP1 PUSH2 0x109F JUMP JUMPDEST SWAP1 POP DUP3 DUP3 LT ISZERO PUSH2 0xA67 JUMPI PUSH1 0x40 MLOAD PUSH32 0x8C379A000000000000000000000000000000000000000000000000000000000 DUP2 MSTORE PUSH1 0x4 ADD PUSH2 0xA5E SWAP1 PUSH2 0x14A6 JUMP JUMPDEST PUSH1 0x40 MLOAD DUP1 SWAP2 SUB SWAP1 REVERT JUMPDEST DUP3 DUP2 LT ISZERO PUSH2 0xAAA JUMPI PUSH1 0x40 MLOAD PUSH32 0x8C379A000000000000000000000000000000000000000000000000000000000 DUP2 MSTORE PUSH1 0x4 ADD PUSH2 0xAA1 SWAP1 PUSH2 0x150E JUMP JUMPDEST PUSH1 0x40 MLOAD DUP1 SWAP2 SUB SWAP1 REVERT JUMPDEST PUSH20 0xA0B86991C6218B36C1D19D4A2E9EB0CE3606EB48 PUSH20 0xFFFFFFFFFFFFFFFFFFFFFFFFFFFFFFFFFFFFFFFF AND PUSH4 0x23B872DD CALLER ADDRESS DUP7 PUSH1 0x40 MLOAD DUP5 PUSH4 0xFFFFFFFF AND PUSH1 0xE0 SHL DUP2 MSTORE PUSH1 0x4 ADD PUSH2 0xAFB SWAP4 SWAP3 SWAP2 SWAP1 PUSH2 0x131D JUMP JUMPDEST PUSH1 0x20 PUSH1 0x40 MLOAD DUP1 DUP4 SUB DUP2 PUSH0 DUP8 GAS CALL ISZERO DUP1 ISZERO PUSH2 0xB17 JUMPI RETURNDATASIZE PUSH0 DUP1 RETURNDATACOPY RETURNDATASIZE PUSH0 REVERT JUMPDEST POP POP POP POP PUSH1 0x40 MLOAD RETURNDATASIZE PUSH1 0x1F NOT PUSH1 0x1F DUP3 ADD AND DUP3 ADD DUP1 PUSH1 0x40 MSTORE POP DUP2 ADD SWAP1 PUSH2 0xB3B SWAP2 SWAP1 PUSH2 0x117B JUMP JUMPDEST POP PUSH0 PUSH2 0xB46 DUP5 PUSH2 0x4F8 JUMP JUMPDEST SWAP1 POP PUSH0 PUSH2 0xB52 DUP6 PUSH2 0x2B6 JUMP JUMPDEST SWAP1 POP DUP1 DUP3 GT ISZERO PUSH2 0xB75 JUMPI PUSH2 0xB66 DUP6 DUP3 PUSH2 0x211 JUMP JUMPDEST PUSH2 0xB70 DUP6 DUP3 PUSH2 0x664 JUMP JUMPDEST PUSH2 0xB8A JUMP JUMPDEST PUSH2 0xB7F DUP6 DUP4 PUSH2 0xB91 JUMP JUMPDEST PUSH2 0xB89 DUP3 DUP7 PUSH2 0x3A3 JUMP JUMPDEST JUMPDEST POP POP POP POP POP JUMP JUMPDEST PUSH20 0xA0B86991C6218B36C1D19D4A2E9EB0CE3606EB48 PUSH20 0xFFFFFFFFFFFFFFFFFFFFFFFFFFFFFFFFFFFFFFFF AND PUSH4 0x23B872DD CALLER ADDRESS DUP6 PUSH1 0x40 MLOAD DUP5 PUSH4 0xFFFFFFFF AND PUSH1 0xE0 SHL DUP2 MSTORE PUSH1 0x4 ADD PUSH2 0xBE2 SWAP4 SWAP3 SWAP2 SWAP1 PUSH2 0x131D JUMP JUMPDEST PUSH1 0x20 PUSH1 0x40 MLOAD DUP1 DUP4 SUB DUP2 PUSH0 DUP8 GAS CALL ISZERO DUP1 ISZERO PUSH2 0xBFE JUMPI RETURNDATASIZE PUSH0 DUP1 RETURNDATACOPY RETURNDATASIZE PUSH0 REVERT JUMPDEST POP POP POP POP PUSH1 0x40 MLOAD RETURNDATASIZE PUSH1 0x1F NOT PUSH1 0x1F DUP3 ADD AND DUP3 ADD DUP1 PUSH1 0x40 MSTORE POP DUP2 ADD SWAP1 PUSH2 0xC22 SWAP2 SWAP1 PUSH2 0x117B JUMP JUMPDEST POP PUSH20 0xA0B86991C6218B36C1D19D4A2E9EB0CE3606EB48 PUSH20 0xFFFFFFFFFFFFFFFFFFFFFFFFFFFFFFFFFFFFFFFF AND PUSH4 0x95EA7B3 PUSH32 0x0 DUP5 PUSH1 0x40 MLOAD DUP4 PUSH4 0xFFFFFFFF AND PUSH1 0xE0 SHL DUP2 MSTORE PUSH1 0x4 ADD PUSH2 0xC92 SWAP3 SWAP2 SWAP1 PUSH2 0x111F JUMP JUMPDEST PUSH1 0x20 PUSH1 0x40 MLOAD DUP1 DUP4 SUB DUP2 PUSH0 DUP8 GAS CALL ISZERO DUP1 ISZERO PUSH2 0xCAE JUMPI RETURNDATASIZE PUSH0 DUP1 RETURNDATACOPY RETURNDATASIZE PUSH0 REVERT JUMPDEST POP POP POP POP PUSH1 0x40 MLOAD RETURNDATASIZE PUSH1 0x1F NOT PUSH1 0x1F DUP3 ADD AND DUP3 ADD DUP1 PUSH1 0x40 MSTORE POP DUP2 ADD SWAP1 PUSH2 0xCD2 SWAP2 SWAP1 PUSH2 0x117B JUMP JUMPDEST POP PUSH0 PUSH1 0x40 MLOAD DUP1 PUSH2 0x100 ADD PUSH1 0x40 MSTORE DUP1 PUSH20 0xA0B86991C6218B36C1D19D4A2E9EB0CE3606EB48 PUSH20 0xFFFFFFFFFFFFFFFFFFFFFFFFFFFFFFFFFFFFFFFF AND DUP2 MSTORE PUSH1 0x20 ADD PUSH20 0xC02AAA39B223FE8D0A0E5C4F27EAD9083C756CC2 PUSH20 0xFFFFFFFFFFFFFFFFFFFFFFFFFFFFFFFFFFFFFFFF AND DUP2 MSTORE PUSH1 0x20 ADD PUSH2 0xBB8 PUSH3 0xFFFFFF AND DUP2 MSTORE PUSH1 0x20 ADD CALLER PUSH20 0xFFFFFFFFFFFFFFFFFFFFFFFFFFFFFFFFFFFFFFFF AND DUP2 MSTORE PUSH1 0x20 ADD TIMESTAMP DUP2 MSTORE PUSH1 0x20 ADD DUP5 DUP2 MSTORE PUSH1 0x20 ADD DUP4 DUP2 MSTORE PUSH1 0x20 ADD PUSH0 PUSH20 0xFFFFFFFFFFFFFFFFFFFFFFFFFFFFFFFFFFFFFFFF AND DUP2 MSTORE POP SWAP1 POP PUSH32 0x0 PUSH20 0xFFFFFFFFFFFFFFFFFFFFFFFFFFFFFFFFFFFFFFFF AND PUSH4 0x414BF389 DUP3 PUSH1 0x40 MLOAD DUP3 PUSH4 0xFFFFFFFF AND PUSH1 0xE0 SHL DUP2 MSTORE PUSH1 0x4 ADD PUSH2 0xDF0 SWAP2 SWAP1 PUSH2 0x1303 JUMP JUMPDEST PUSH1 0x20 PUSH1 0x40 MLOAD DUP1 DUP4 SUB DUP2 PUSH0 DUP8 GAS CALL ISZERO DUP1 ISZERO PUSH2 0xE0C JUMPI RETURNDATASIZE PUSH0 DUP1 RETURNDATACOPY RETURNDATASIZE PUSH0 REVERT JUMPDEST POP POP POP POP PUSH1 0x40 MLOAD RETURNDATASIZE PUSH1 0x1F NOT PUSH1 0x1F DUP3 ADD AND DUP3 ADD DUP1 PUSH1 0x40 MSTORE POP DUP2 ADD SWAP1 PUSH2 0xE30 SWAP2 SWAP1 PUSH2 0x109F JUMP JUMPDEST POP POP POP POP JUMP JUMPDEST PUSH0 DUP1 REVERT JUMPDEST PUSH0 DUP2 SWAP1 POP SWAP2 SWAP1 POP JUMP JUMPDEST PUSH2 0xE4C DUP2 PUSH2 0xE3A JUMP JUMPDEST DUP2 EQ PUSH2 0xE56 JUMPI PUSH0 DUP1 REVERT JUMPDEST POP JUMP JUMPDEST PUSH0 DUP2 CALLDATALOAD SWAP1 POP PUSH2 0xE67 DUP2 PUSH2 0xE43 JUMP JUMPDEST SWAP3 SWAP2 POP POP JUMP JUMPDEST PUSH0 DUP1 PUSH1 0x40 DUP4 DUP6 SUB SLT ISZERO PUSH2 0xE83 JUMPI PUSH2 0xE82 PUSH2 0xE36 JUMP JUMPDEST JUMPDEST PUSH0 PUSH2 0xE90 DUP6 DUP3 DUP7 ADD PUSH2 0xE59 JUMP JUMPDEST SWAP3 POP POP PUSH1 0x20 PUSH2 0xEA1 DUP6 DUP3 DUP7 ADD PUSH2 0xE59 JUMP JUMPDEST SWAP2 POP POP SWAP3 POP SWAP3 SWAP1 POP JUMP JUMPDEST PUSH0 PUSH1 0x20 DUP3 DUP5 SUB SLT ISZERO PUSH2 0xEC0 JUMPI PUSH2 0xEBF PUSH2 0xE36 JUMP JUMPDEST JUMPDEST PUSH0 PUSH2 0xECD DUP5 DUP3 DUP6 ADD PUSH2 0xE59 JUMP JUMPDEST SWAP2 POP POP SWAP3 SWAP2 POP POP JUMP JUMPDEST PUSH2 0xEDF DUP2 PUSH2 0xE3A JUMP JUMPDEST DUP3 MSTORE POP POP JUMP JUMPDEST PUSH0 PUSH1 0x20 DUP3 ADD SWAP1 POP PUSH2 0xEF8 PUSH0 DUP4 ADD DUP5 PUSH2 0xED6 JUMP JUMPDEST SWAP3 SWAP2 POP POP JUMP JUMPDEST PUSH0 PUSH20 0xFFFFFFFFFFFFFFFFFFFFFFFFFFFFFFFFFFFFFFFF DUP3 AND SWAP1 POP SWAP2 SWAP1 POP JUMP JUMPDEST PUSH0 DUP2 SWAP1 POP SWAP2 SWAP1 POP JUMP JUMPDEST PUSH0 PUSH2 0xF40 PUSH2 0xF3B PUSH2 0xF36 DUP5 PUSH2 0xEFE JUMP JUMPDEST PUSH2 0xF1D JUMP JUMPDEST PUSH2 0xEFE JUMP JUMPDEST SWAP1 POP SWAP2 SWAP1 POP JUMP JUMPDEST PUSH0 PUSH2 0xF51 DUP3 PUSH2 0xF26 JUMP JUMPDEST SWAP1 POP SWAP2 SWAP1 POP JUMP JUMPDEST PUSH0 PUSH2 0xF62 DUP3 PUSH2 0xF47 JUMP JUMPDEST SWAP1 POP SWAP2 SWAP1 POP JUMP JUMPDEST PUSH2 0xF72 DUP2 PUSH2 0xF58 JUMP JUMPDEST DUP3 MSTORE POP POP JUMP JUMPDEST PUSH0 PUSH1 0x20 DUP3 ADD SWAP1 POP PUSH2 0xF8B PUSH0 DUP4 ADD DUP5 PUSH2 0xF69 JUMP JUMPDEST SWAP3 SWAP2 POP POP JUMP JUMPDEST PUSH0 PUSH2 0xF9B DUP3 PUSH2 0xF47 JUMP JUMPDEST SWAP1 POP SWAP2 SWAP1 POP JUMP JUMPDEST PUSH2 0xFAB DUP2 PUSH2 0xF91 JUMP JUMPDEST DUP3 MSTORE POP POP JUMP JUMPDEST PUSH0 PUSH1 0x20 DUP3 ADD SWAP1 POP PUSH2 0xFC4 PUSH0 DUP4 ADD DUP5 PUSH2 0xFA2 JUMP JUMPDEST SWAP3 SWAP2 POP POP JUMP JUMPDEST PUSH0 DUP2 SWAP1 POP SWAP2 SWAP1 POP JUMP JUMPDEST PUSH0 DUP2 PUSH1 0xF SIGNEXTEND SWAP1 POP SWAP2 SWAP1 POP JUMP JUMPDEST PUSH0 PUSH2 0xFF9 PUSH2 0xFF4 PUSH2 0xFEF DUP5 PUSH2 0xFCA JUMP JUMPDEST PUSH2 0xF1D JUMP JUMPDEST PUSH2 0xFD3 JUMP JUMPDEST SWAP1 POP SWAP2 SWAP1 POP JUMP JUMPDEST PUSH2 0x1009 DUP2 PUSH2 0xFDF JUMP JUMPDEST DUP3 MSTORE POP POP JUMP JUMPDEST PUSH0 DUP2 SWAP1 POP SWAP2 SWAP1 POP JUMP JUMPDEST PUSH0 PUSH2 0x1032 PUSH2 0x102D PUSH2 0x1028 DUP5 PUSH2 0x100F JUMP JUMPDEST PUSH2 0xF1D JUMP JUMPDEST PUSH2 0xFD3 JUMP JUMPDEST SWAP1 POP SWAP2 SWAP1 POP JUMP JUMPDEST PUSH2 0x1042 DUP2 PUSH2 0x1018 JUMP JUMPDEST DUP3 MSTORE POP POP JUMP JUMPDEST PUSH0 PUSH1 0x80 DUP3 ADD SWAP1 POP PUSH2 0x105B PUSH0 DUP4 ADD DUP8 PUSH2 0x1000 JUMP JUMPDEST PUSH2 0x1068 PUSH1 0x20 DUP4 ADD DUP7 PUSH2 0x1039 JUMP JUMPDEST PUSH2 0x1075 PUSH1 0x40 DUP4 ADD DUP6 PUSH2 0xED6 JUMP JUMPDEST PUSH2 0x1082 PUSH1 0x60 DUP4 ADD DUP5 PUSH2 0xED6 JUMP JUMPDEST SWAP6 SWAP5 POP POP POP POP POP JUMP JUMPDEST PUSH0 DUP2 MLOAD SWAP1 POP PUSH2 0x1099 DUP2 PUSH2 0xE43 JUMP JUMPDEST SWAP3 SWAP2 POP POP JUMP JUMPDEST PUSH0 PUSH1 0x20 DUP3 DUP5 SUB SLT ISZERO PUSH2 0x10B4 JUMPI PUSH2 0x10B3 PUSH2 0xE36 JUMP JUMPDEST JUMPDEST PUSH0 PUSH2 0x10C1 DUP5 DUP3 DUP6 ADD PUSH2 0x108B JUMP JUMPDEST SWAP2 POP POP SWAP3 SWAP2 POP POP JUMP JUMPDEST PUSH0 PUSH1 0x60 DUP3 ADD SWAP1 POP PUSH2 0x10DD PUSH0 DUP4 ADD DUP7 PUSH2 0x1000 JUMP JUMPDEST PUSH2 0x10EA PUSH1 0x20 DUP4 ADD DUP6 PUSH2 0x1039 JUMP JUMPDEST PUSH2 0x10F7 PUSH1 0x40 DUP4 ADD DUP5 PUSH2 0xED6 JUMP JUMPDEST SWAP5 SWAP4 POP POP POP POP JUMP JUMPDEST PUSH0 PUSH2 0x1109 DUP3 PUSH2 0xEFE JUMP JUMPDEST SWAP1 POP SWAP2 SWAP1 POP JUMP JUMPDEST PUSH2 0x1119 DUP2 PUSH2 0x10FF JUMP JUMPDEST DUP3 MSTORE POP POP JUMP JUMPDEST PUSH0 PUSH1 0x40 DUP3 ADD SWAP1 POP PUSH2 0x1132 PUSH0 DUP4 ADD DUP6 PUSH2 0x1110 JUMP JUMPDEST PUSH2 0x113F PUSH1 0x20 DUP4 ADD DUP5 PUSH2 0xED6 JUMP JUMPDEST SWAP4 SWAP3 POP POP POP JUMP JUMPDEST PUSH0 DUP2 ISZERO ISZERO SWAP1 POP SWAP2 SWAP1 POP JUMP JUMPDEST PUSH2 0x115A DUP2 PUSH2 0x1146 JUMP JUMPDEST DUP2 EQ PUSH2 0x1164 JUMPI PUSH0 DUP1 REVERT JUMPDEST POP JUMP JUMPDEST PUSH0 DUP2 MLOAD SWAP1 POP PUSH2 0x1175 DUP2 PUSH2 0x1151 JUMP JUMPDEST SWAP3 SWAP2 POP POP JUMP JUMPDEST PUSH0 PUSH1 0x20 DUP3 DUP5 SUB SLT ISZERO PUSH2 0x1190 JUMPI PUSH2 0x118F PUSH2 0xE36 JUMP JUMPDEST JUMPDEST PUSH0 PUSH2 0x119D DUP5 DUP3 DUP6 ADD PUSH2 0x1167 JUMP JUMPDEST SWAP2 POP POP SWAP3 SWAP2 POP POP JUMP JUMPDEST PUSH0 PUSH2 0x11C0 PUSH2 0x11BB PUSH2 0x11B6 DUP5 PUSH2 0xFCA JUMP JUMPDEST PUSH2 0xF1D JUMP JUMPDEST PUSH2 0xE3A JUMP JUMPDEST SWAP1 POP SWAP2 SWAP1 POP JUMP JUMPDEST PUSH2 0x11D0 DUP2 PUSH2 0x11A6 JUMP JUMPDEST DUP3 MSTORE POP POP JUMP JUMPDEST PUSH0 PUSH1 0x80 DUP3 ADD SWAP1 POP PUSH2 0x11E9 PUSH0 DUP4 ADD DUP8 PUSH2 0x1039 JUMP JUMPDEST PUSH2 0x11F6 PUSH1 0x20 DUP4 ADD DUP7 PUSH2 0x1000 JUMP JUMPDEST PUSH2 0x1203 PUSH1 0x40 DUP4 ADD DUP6 PUSH2 0xED6 JUMP JUMPDEST PUSH2 0x1210 PUSH1 0x60 DUP4 ADD DUP5 PUSH2 0x11C7 JUMP JUMPDEST SWAP6 SWAP5 POP POP POP POP POP JUMP JUMPDEST PUSH2 0x1222 DUP2 PUSH2 0x10FF JUMP JUMPDEST DUP3 MSTORE POP POP JUMP JUMPDEST PUSH0 PUSH3 0xFFFFFF DUP3 AND SWAP1 POP SWAP2 SWAP1 POP JUMP JUMPDEST PUSH2 0x123F DUP2 PUSH2 0x1228 JUMP JUMPDEST DUP3 MSTORE POP POP JUMP JUMPDEST PUSH2 0x124E DUP2 PUSH2 0xE3A JUMP JUMPDEST DUP3 MSTORE POP POP JUMP JUMPDEST PUSH2 0x125D DUP2 PUSH2 0xEFE JUMP JUMPDEST DUP3 MSTORE POP POP JUMP JUMPDEST PUSH2 0x100 DUP3 ADD PUSH0 DUP3 ADD MLOAD PUSH2 0x1278 PUSH0 DUP6 ADD DUP3 PUSH2 0x1219 JUMP JUMPDEST POP PUSH1 0x20 DUP3 ADD MLOAD PUSH2 0x128B PUSH1 0x20 DUP6 ADD DUP3 PUSH2 0x1219 JUMP JUMPDEST POP PUSH1 0x40 DUP3 ADD MLOAD PUSH2 0x129E PUSH1 0x40 DUP6 ADD DUP3 PUSH2 0x1236 JUMP JUMPDEST POP PUSH1 0x60 DUP3 ADD MLOAD PUSH2 0x12B1 PUSH1 0x60 DUP6 ADD DUP3 PUSH2 0x1219 JUMP JUMPDEST POP PUSH1 0x80 DUP3 ADD MLOAD PUSH2 0x12C4 PUSH1 0x80 DUP6 ADD DUP3 PUSH2 0x1245 JUMP JUMPDEST POP PUSH1 0xA0 DUP3 ADD MLOAD PUSH2 0x12D7 PUSH1 0xA0 DUP6 ADD DUP3 PUSH2 0x1245 JUMP JUMPDEST POP PUSH1 0xC0 DUP3 ADD MLOAD PUSH2 0x12EA PUSH1 0xC0 DUP6 ADD DUP3 PUSH2 0x1245 JUMP JUMPDEST POP PUSH1 0xE0 DUP3 ADD MLOAD PUSH2 0x12FD PUSH1 0xE0 DUP6 ADD DUP3 PUSH2 0x1254 JUMP JUMPDEST POP POP POP POP JUMP JUMPDEST PUSH0 PUSH2 0x100 DUP3 ADD SWAP1 POP PUSH2 0x1317 PUSH0 DUP4 ADD DUP5 PUSH2 0x1263 JUMP JUMPDEST SWAP3 SWAP2 POP POP JUMP JUMPDEST PUSH0 PUSH1 0x60 DUP3 ADD SWAP1 POP PUSH2 0x1330 PUSH0 DUP4 ADD DUP7 PUSH2 0x1110 JUMP JUMPDEST PUSH2 0x133D PUSH1 0x20 DUP4 ADD DUP6 PUSH2 0x1110 JUMP JUMPDEST PUSH2 0x134A PUSH1 0x40 DUP4 ADD DUP5 PUSH2 0xED6 JUMP JUMPDEST SWAP5 SWAP4 POP POP POP POP JUMP JUMPDEST PUSH2 0x100 DUP3 ADD PUSH0 DUP3 ADD MLOAD PUSH2 0x1367 PUSH0 DUP6 ADD DUP3 PUSH2 0x1219 JUMP JUMPDEST POP PUSH1 0x20 DUP3 ADD MLOAD PUSH2 0x137A PUSH1 0x20 DUP6 ADD DUP3 PUSH2 0x1219 JUMP JUMPDEST POP PUSH1 0x40 DUP3 ADD MLOAD PUSH2 0x138D PUSH1 0x40 DUP6 ADD DUP3 PUSH2 0x1245 JUMP JUMPDEST POP PUSH1 0x60 DUP3 ADD MLOAD PUSH2 0x13A0 PUSH1 0x60 DUP6 ADD DUP3 PUSH2 0x1245 JUMP JUMPDEST POP PUSH1 0x80 DUP3 ADD MLOAD PUSH2 0x13B3 PUSH1 0x80 DUP6 ADD DUP3 PUSH2 0x1219 JUMP JUMPDEST POP PUSH1 0xA0 DUP3 ADD MLOAD PUSH2 0x13C6 PUSH1 0xA0 DUP6 ADD DUP3 PUSH2 0x1245 JUMP JUMPDEST POP PUSH1 0xC0 DUP3 ADD MLOAD PUSH2 0x13D9 PUSH1 0xC0 DUP6 ADD DUP3 PUSH2 0x1245 JUMP JUMPDEST POP PUSH1 0xE0 DUP3 ADD MLOAD PUSH2 0x13EC PUSH1 0xE0 DUP6 ADD DUP3 PUSH2 0x1254 JUMP JUMPDEST POP POP POP POP JUMP JUMPDEST PUSH0 PUSH2 0x100 DUP3 ADD SWAP1 POP PUSH2 0x1406 PUSH0 DUP4 ADD DUP5 PUSH2 0x1352 JUMP JUMPDEST SWAP3 SWAP2 POP POP JUMP JUMPDEST PUSH0 PUSH1 0x40 DUP3 ADD SWAP1 POP PUSH2 0x141F PUSH0 DUP4 ADD DUP6 PUSH2 0x1110 JUMP JUMPDEST PUSH2 0x142C PUSH1 0x20 DUP4 ADD DUP5 PUSH2 0x1110 JUMP JUMPDEST SWAP4 SWAP3 POP POP POP JUMP JUMPDEST PUSH0 PUSH1 0x20 DUP3 ADD SWAP1 POP PUSH2 0x1446 PUSH0 DUP4 ADD DUP5 PUSH2 0x1110 JUMP JUMPDEST SWAP3 SWAP2 POP POP JUMP JUMPDEST PUSH0 DUP3 DUP3 MSTORE PUSH1 0x20 DUP3 ADD SWAP1 POP SWAP3 SWAP2 POP POP JUMP JUMPDEST PUSH32 0x416C6C6F77616E636520746F6F206C6F77000000000000000000000000000000 PUSH0 DUP3 ADD MSTORE POP JUMP JUMPDEST PUSH0 PUSH2 0x1490 PUSH1 0x11 DUP4 PUSH2 0x144C JUMP JUMPDEST SWAP2 POP PUSH2 0x149B DUP3 PUSH2 0x145C JUMP JUMPDEST PUSH1 0x20 DUP3 ADD SWAP1 POP SWAP2 SWAP1 POP JUMP JUMPDEST PUSH0 PUSH1 0x20 DUP3 ADD SWAP1 POP DUP2 DUP2 SUB PUSH0 DUP4 ADD MSTORE PUSH2 0x14BD DUP2 PUSH2 0x1484 JUMP JUMPDEST SWAP1 POP SWAP2 SWAP1 POP JUMP JUMPDEST PUSH32 0x496E73756666696369656E742062616C616E6365000000000000000000000000 PUSH0 DUP3 ADD MSTORE POP JUMP JUMPDEST PUSH0 PUSH2 0x14F8 PUSH1 0x14 DUP4 PUSH2 0x144C JUMP JUMPDEST SWAP2 POP PUSH2 0x1503 DUP3 PUSH2 0x14C4 JUMP JUMPDEST PUSH1 0x20 DUP3 ADD SWAP1 POP SWAP2 SWAP1 POP JUMP JUMPDEST PUSH0 PUSH1 0x20 DUP3 ADD SWAP1 POP DUP2 DUP2 SUB PUSH0 DUP4 ADD MSTORE PUSH2 0x1525 DUP2 PUSH2 0x14EC JUMP JUMPDEST SWAP1 POP SWAP2 SWAP1 POP JUMP INVALID LOG2 PUSH5 0x6970667358 0x22 SLT KECCAK256 0x21 0xEE EXTCODEHASH PUSH30 0xDE829E58CAB3D8E70CD3A80EBD2073D3700F6F7E6C28ED06FCA70446473 PUSH16 0x6C634300081400330000000000000000 "
				},
				"gasEstimates": {
					"creation": {
						"codeDepositCost": "1094800",
						"executionCost": "infinite",
						"totalCost": "infinite"
					},
					"external": {
						"buyEthOnCurve(uint256,uint256)": "infinite",
						"curvePool()": "infinite",
						"exchangeArbitrage(uint256)": "infinite",
						"getAmountonCurve(uint256)": "infinite",
						"getAmountonUniswap(uint256)": "infinite",
						"sellEthonCurve(uint256,uint256)": "infinite",
						"swapExactInputSingleHop(uint256,uint256)": "infinite",
						"swapExactOutputSingleHop(uint256,uint256)": "infinite",
						"uniswapRouter()": "infinite"
					}
				},
				"methodIdentifiers": {
					"buyEthOnCurve(uint256,uint256)": "04907bbb",
					"curvePool()": "218751b2",
					"exchangeArbitrage(uint256)": "d22cc067",
					"getAmountonCurve(uint256)": "1540e747",
					"getAmountonUniswap(uint256)": "c477b581",
					"sellEthonCurve(uint256,uint256)": "87b8d225",
					"swapExactInputSingleHop(uint256,uint256)": "e4eaab96",
					"swapExactOutputSingleHop(uint256,uint256)": "c9eb5e5a",
					"uniswapRouter()": "735de9f7"
				}
			},
			"storageLayout": {
				"storage": [],
				"types": null
			},
			"userdoc": {
				"kind": "user",
				"methods": {},
				"version": 1
			}
		}
	}
}